:020000040800F2
:1000000000800120B12000088D1E0008951E000808
:100010009D1E0008A51E0008AD1E0008000000007F
:10002000000000000000000000000000B51E0008F5
:10003000C31E000800000000D11E0008DF1E0008DB
:100040000121000801210008012100080121000808
:1000500001210008012100080121000801210008F8
:1000600001210008012100080121000801210008E8
:1000700001210008012100080121000801210008D8
:1000800001210008012100080121000801210008C8
:1000900001210008012100080121000801210008B8
:1000A00001210008012100080121000801210008A8
:1000B000ED1E0008012100080121000801210008AF
:1000C0000121000801210008012100080121000888
:1000D0000121000801210008012100080121000878
:1000E0000121000801210008012100080121000868
:1000F0000121000801210008012100080121000858
:100100000121000801210008012100080121000847
:100110000121000801210008012100080121000837
:100120000121000801210008012100080121000827
:100130000121000801210008012100080121000817
:100140000121000801210008012100080121000807
:1001500001210008012100080121000801210008F7
:1001600001210008012100080121000801210008E7
:100170000121000801210008012100080000000001
:08018000012100080121000823
:1001900010B5054C237833B9044B13B10448AFF3C1
:1001A00000800123237010BD040200200000000025
:1001B00004A4000808B5034B1BB103490348AFF37F
:1001C000008008BD000000000802002004A4000810
:1001D00001F0FF01102A2BDB10F0070F08D010F8F8
:1001E000013B013A8B422DD010F0070F42B3F6D1FC
:1001F000F0B441EA012141EA014122F007047FF015
:1002000000070023F0E80256083C85EA010586EA6B
:10021000010685FA47F5A3FA87F586FA47F6A5FAA7
:1002200087F68EB9EED1F0BC01F0FF0102F00702B3
:1002300032B110F8013B013A83EA010313B1F8D15E
:100240000020704701387047002D06BF354603383F
:10025000073815F0010F07D1013015F4807F02BF78
:10026000013015F4C03F0130F0BC0138704700BFC9
:10027000034613F8012B002AFBD1181A01387047E6
:1002800081F0004102E000BF83F0004330B54FEA47
:1002900041044FEA430594EA050F08BF90EA020FB4
:1002A0001FBF54EA000C55EA020C7FEA645C7FEA47
:1002B000655C00F0E2804FEA5454D4EB5555B8BF6A
:1002C0006D420CDD2C4480EA020281EA030382EADB
:1002D000000083EA010180EA020281EA0303362D6D
:1002E00088BF30BD11F0004F4FEA01314FF4801C40
:1002F0004CEA113102D0404261EB410113F0004F52
:100300004FEA03334CEA133302D0524263EB430308
:1003100094EA050F00F0A780A4F10104D5F1200EA6
:100320000DDB02FA0EFC22FA05F2801841F1000101
:1003300003FA0EF2801843FA05F359410EE0A5F1D5
:1003400020050EF1200E012A03FA0EFC28BF4CF006
:10035000020C43FA05F3C01851EBE37101F00045BC
:1003600007D54FF0000EDCF1000C7EEB00006EEBC9
:100370000101B1F5801F1BD3B1F5001F0CD3490853
:100380005FEA30004FEA3C0C04F101044FEA4452AA
:1003900012F5800F80F09A80BCF1004F08BF5FEA31
:1003A000500C50F1000041EB045141EA050130BD11
:1003B0005FEA4C0C404141EB0101013C28BFB1F523
:1003C000801FE9D291F0000F04BF01460020B1FA6E
:1003D00081F308BF2033A3F10B03B3F120020CDA41
:1003E0000C3208DD02F1140CC2F10C0201FA0CF01F
:1003F00021FA02F10CE002F11402D8BFC2F1200C84
:1004000001FA02F120FA0CFCDCBF41EA0C01904039
:10041000E41AA2BF01EB0451294330BD6FEA040482
:100420001F3C1CDA0C340EDC04F11404C4F120026D
:1004300020FA04F001FA02F340EA030021FA04F37F
:1004400045EA030130BDC4F10C04C4F1200220FAD6
:1004500002F001FA04F340EA0300294630BD21FA14
:1004600004F0294630BD94F0000F83F4801306BFDA
:1004700081F480110134013D4EE77FEA645C18BFCE
:100480007FEA655C29D094EA050F08BF90EA020F65
:1004900005D054EA000C04BF1946104630BD91EA5D
:1004A000030F1EBF0021002030BD5FEA545C05D160
:1004B0004000494128BF41F0004130BD14F580049F
:1004C0003CBF01F5801130BD01F0004545F0FE4113
:1004D00041F470014FF0000030BD7FEA645C1ABF48
:1004E000194610467FEA655C1CBF0B46024650EA7F
:1004F000013406BF52EA033591EA030F41F40021AB
:1005000030BD00BF90F0000F04BF0021704730B530
:100510004FF4806404F132044FF000054FF0000105
:1005200050E700BF90F0000F04BF0021704730B5C6
:100530004FF4806404F1320410F0004548BF40429B
:100540004FF000013EE700BF42004FEAE2014FEAF0
:1005500031014FEA02701FBF12F07F4393F07F4FCB
:1005600081F06051704732F07F4208BF704793F0CE
:100570007F4F04BF41F40021704730B54FF46074E1
:1005800001F0004521F000411CE700BF50EA0102E4
:1005900008BF704730B54FF000050AE050EA01028D
:1005A00008BF704730B511F0004502D5404261EBFD
:1005B00041014FF4806404F132045FEA915C3FF43E
:1005C000D8AE4FF003025FEADC0C18BF03325FEADB
:1005D000DC0C18BF033202EBDC02C2F1200300FA8C
:1005E00003FC20FA02F001FA03FE40EA0E0021FAB1
:1005F00002F11444BDE600BF70B54FF0FF0C4CF49F
:10060000E06C1CEA11541DBF1CEA135594EA0C0F50
:1006100095EA0C0F00F0DEF82C4481EA030621EA8B
:100620004C5123EA4C5350EA013518BF52EA0335C6
:1006300041F4801143F4801338D0A0FB02CE4FF078
:100640000005E1FB02E506F00042E0FB03E54FF0A8
:100650000006E1FB03569CF0000F18BF4EF0010EA0
:10066000A4F1FF04B6F5007F64F5407404D25FEA9C
:100670004E0E6D4146EB060642EAC62141EA55514F
:100680004FEAC52040EA5E504FEACE2EB4F1FD0C91
:1006900088BFBCF5E06F1ED8BEF1004F08BF5FEA0F
:1006A000500E50F1000041EB045170BD06F00046C1
:1006B00046EA010140EA020081EA0301B4EB5C046E
:1006C000C2BFD4EB0C0541EA045170BD41F4801166
:1006D0004FF0000E013C00F3AB8014F1360FDEBF8B
:1006E000002001F0004170BDC4F10004203C35DA67
:1006F0000C341BDC04F11404C4F1200500FA05F3EA
:1007000020FA04F001FA05F240EA020001F000428A
:1007100021F0004110EBD37021FA04F642EB060100
:100720005EEA430E08BF20EAD37070BDC4F10C042A
:10073000C4F1200500FA04F320FA05F001FA04F2EE
:1007400040EA020001F0004110EBD37041F10001DA
:100750005EEA430E08BF20EAD37070BDC4F12005E5
:1007600000FA05F24EEA020E20FA04F301FA05F24D
:1007700043EA020321FA04F001F0004121FA04F2F5
:1007800020EA020000EBD3705EEA430E08BF20EAC5
:10079000D37070BD94F0000F0FD101F000464000FF
:1007A00041EB010111F4801F08BF013CF7D041EA81
:1007B000060195F0000F18BF704703F00046520085
:1007C00043EB030313F4801F08BF013DF7D043EA56
:1007D0000603704794EA0C0F0CEA135518BF95EA0C
:1007E0000C0F0CD050EA410618BF52EA4306D1D193
:1007F00081EA030101F000414FF0000070BD50EAB2
:10080000410606BF1046194652EA430619D094EA3B
:100810000C0F02D150EA013613D195EA0C0F05D125
:1008200052EA03361CBF104619460AD181EA030179
:1008300001F0004141F0FE4141F470014FF0000031
:1008400070BD41F0FE4141F4780170BD70B54FF0CC
:10085000FF0C4CF4E06C1CEA11541DBF1CEA13554C
:1008600094EA0C0F95EA0C0F00F0A7F8A4EB05042E
:1008700081EA030E52EA03354FEA013100F0888025
:100880004FEA03334FF0805545EA131343EA1263EE
:100890004FEA022245EA111545EA10654FEA0026A3
:1008A0000EF000419D4208BF964244F1FD0404F55C
:1008B000407402D25B084FEA3202B61A65EB0305B8
:1008C0005B084FEA32024FF480104FF4002CB6EB75
:1008D000020E75EB030E22BFB61A754640EA0C00F5
:1008E0005B084FEA3202B6EB020E75EB030E22BF35
:1008F000B61A754640EA5C005B084FEA3202B6EB76
:10090000020E75EB030E22BFB61A754640EA9C0034
:100910005B084FEA3202B6EB020E75EB030E22BF04
:10092000B61A754640EADC0055EA060E18D04FEAC2
:10093000051545EA16754FEA06164FEAC30343EA62
:1009400052734FEAC2025FEA1C1CC0D111F4801F2F
:100950000BD141EA00014FF000004FF0004CB6E728
:1009600011F4801F04BF01430020B4F1FD0C88BFC7
:10097000BCF5E06F3FF6AFAEB5EB030C04BFB6EBD2
:10098000020C5FEA500C50F1000041EB045170BDC5
:100990000EF0004E4EEA113114EB5C04C2BFD4EBF2
:1009A0000C0541EA045170BD41F480114FF0000E76
:1009B000013C90E645EA060E8DE60CEA135594EAF2
:1009C0000C0F08BF95EA0C0F3FF43BAF94EA0C0FF5
:1009D0000AD150EA01347FF434AF95EA0C0F7FF46A
:1009E00025AF104619462CE795EA0C0F06D152EABE
:1009F00003353FF4FDAE1046194622E750EA4106A2
:100A000018BF52EA43067FF4C5AE50EA41047FF4B2
:100A10000DAF52EA43057FF4EBAE12E74FF0FF3C17
:100A200006E000BF4FF0010C02E000BF4FF0010CE8
:100A30004DF804CD4FEA410C7FEA6C5C4FEA430C61
:100A400018BF7FEA6C5C1BD001B050EA410C0CBFB0
:100A500052EA430C91EA030F02BF90EA020F002012
:100A6000704710F1000F91EA030F58BF994208BF79
:100A700090422CBFD8176FEAE37040F00100704736
:100A80004FEA410C7FEA6C5C02D150EA013C07D18D
:100A90004FEA430C7FEA6C5CD6D152EA033CD3D0D8
:100AA0005DF8040B704700BF8446104662468C46D2
:100AB0001946634600E000BF01B5FFF7B7FF002805
:100AC00048BF10F1000F01BD4DF808EDFFF7F4FF2E
:100AD0000CBF012000205DF808FB00BF4DF808EDB9
:100AE000FFF7EAFF34BF012000205DF808FB00BFDC
:100AF0004DF808EDFFF7E0FF94BF012000205DF8FE
:100B000008FB00BF4DF808EDFFF7CEFF94BF0120B2
:100B100000205DF808FB00BF4DF808EDFFF7C4FFAB
:100B200034BF012000205DF808FB00BF4FEA410CF4
:100B30007FEA6C5C02D150EA013C0AD14FEA430CD7
:100B40007FEA6C5C02D152EA033C02D14FF0000014
:100B500070474FF0010070474FEA410212F5001252
:100B600015D211D56FF47873B3EB625212D94FEAF4
:100B7000C12343F0004343EA505311F0004F23FADE
:100B800002F018BF404270474FF00000704750EA33
:100B9000013005D111F0004008BF6FF000407047F0
:100BA0004FF00000704700BF53B94AB9002908BF91
:100BB00000281CBF4FF0FF314FF0FF3000F06AB942
:100BC000ADF1080C6DE904CE00F006F8DDF804E0A4
:100BD000DDE9022304B070472DE9F047089D0C467B
:100BE000002B4ED194468C458646B2FA82F262D9E9
:100BF0004AB1C2F12003914020FA03F30CFA02FC3F
:100C0000194300FA02FE4FEA1C471FFA8CF6B1FBAB
:100C1000F7F44FEA1E4307FB141143EA014304FBB8
:100C200006F199420AD91CEB030304F1FF3080F06E
:100C30001281994240F20F81023C6344591A1FFA13
:100C40008EF3B1FBF7F007FB101143EA014300FB01
:100C500006F69E420AD91CEB030300F1FF3180F037
:100C6000FC809E4240F2F980634402389B1B40EABC
:100C7000044000211DB1D3400022C5E90032BDE887
:100C8000F0878B4205D90DB1C5E900010021084666
:100C9000F5E7B3FA83F1002946D1A34202D390428B
:100CA000C0F0F080861A64EB03030120002DE6D02B
:100CB000C5E90063E3E7002A40F09080A1EB0C0453
:100CC0004FEA1C481FFA8CF70121B4FBF8F64FEAF3
:100CD0001E4308FB164443EA044307FB06F0984210
:100CE00008D91CEB030306F1FF3402D2984200F24C
:100CF000CD8026461C1A1FFA8EF3B4FBF8F008FBD1
:100D0000104443EA044300FB07F79F4208D91CEB59
:100D1000030300F1FF3402D29F4200F2B08020466C
:100D2000DB1B40EA0640A5E7C1F120068B4022FA12
:100D300006F71F4320FA06FC04FA01F343EA0C030A
:100D4000F44000FA01F8380C4FEA1349B4FBF0FE06
:100D50001FFA87FC00FB1E4449EA04440EFB0CF911
:100D6000A14502FA01F20AD93C190EF1FF3A80F0CE
:100D70008480A14540F28180AEF1020E3C44A4EB98
:100D800009041FFA83F9B4FBF0F300FB134449EAAA
:100D9000044403FB0CFCA44507D93C1903F1FF30C4
:100DA00067D2A44565D9023B3C4443EA0E40A0FB10
:100DB0000293A4EB0C049C42CE469C4651D34ED0E9
:100DC00055B1B8EB0E0364EB0C0404FA06F6CB4005
:100DD0001E43CC40C5E90064002150E7C2F1200366
:100DE00020FA03F10CFA02FC24FA03F394400C43BA
:100DF0004FEA1C4800FA02FE1FFA8CF7B3FBF8F02A
:100E000008FB1031230C43EA014300FB07F1994230
:100E100008D91CEB030300F1FF362CD299422AD9E2
:100E2000023863445B1AA4B2B3FBF8F108FB113338
:100E300044EA034401FB07F3A34208D91CEB040472
:100E400001F1FF3613D2A34211D902396444E41AE6
:100E500041EA004139E70446F0E6084606E7C8459E
:100E6000AED2B9EB020E63EB070C0138A8E73146AE
:100E7000EDE7034699E73046D4E7D6467FE763447B
:100E800002384DE70646234608460FE7023E634414
:100E900030E700BF704700BF80B582B000AF786018
:100EA0007868FFF7E5F903469AB24FF0FF337968A7
:100EB000034805F023F900BF0837BD4680BD00BFD9
:100EC000AC03002080B584B000AFF860B960134671
:100ED000FB80FB881A460021B86806F0F0FCF86831
:100EE000FFF7C6F903469AB26423F968064805F08D
:100EF00005F9FA886423B968034805F088F900BF4A
:100F00001037BD4680BD00BF2403002090B400AF61
:100F1000064A074B14460FCB07C42370034B41F21C
:100F200068029A8200BFBD4690BC7047A4080020AA
:100F300020A4000880B58CB000AFF860B9601346FB
:100F4000FB7107F1140300221A605A609A60DA609C
:100F50001A615A61002387F82F303AE097F82F3052
:100F60009B00BA6813441B687B610623BB610023A6
:100F7000FB6107F1140319461B4801F0B9FE034653
:100F8000002B01D000F0ACFD174801F0DDFC03465A
:100F9000002B01D000F0A4FD4FF0FF31124801F00A
:100FA000C1FD0346002B01D000F09AFD0E4801F070
:100FB00091FE014697F82F305B00FA6813448AB21D
:100FC0001A80094801F07AFD97F82F30013387F82D
:100FD0002F3097F82F20FB799A42BFD300BF00BF74
:100FE0003037BD4680BD00BF2002002080B592B0E2
:100FF00000AF00233B603B1D3C220021184606F059
:101000005EFC3B46402219461C48FFF75BFF3B460F
:10101000402219461A48FFF755FF3B464022194621
:101020001848FFF74FFF3B462221184606F04FFCB9
:1010300078643B462221184606F07BFC38647B6CC2
:10104000002B17D03B6C002B14D03A6C7B6C9A426F
:1010500010D97B6C591C3A6C7B6CD31A013B1A4635
:10106000094806F053FC3A6C7B6CD31A013B064AE4
:101070000021D15400BF4837BD4680BD30A40008D0
:101080003CA4000844A400088404002080B5A4B057
:1010900000AF00237B6007F108037C220021184683
:1010A00006F00DFC3B1D802219462A48FFF70AFF77
:1010B0003B1DC7F88C3004E0D7F88C300133C7F8FB
:1010C0008C30D7F88C301B78002B09D0D7F88C30B7
:1010D0001B782F2BF0D9D7F88C301B78392BEBD815
:1010E000D7F88C301B78002B30D0D7F88C30C7F86D
:1010F000883004E0D7F888300133C7F88830D7F853
:1011000088301B782F2B04D9D7F888301B78392BDF
:10111000F0D9D7F88820D7F88C30D31AC7F88430A4
:10112000D7F88430002B11DDD7F884303F2B0DD851
:10113000D7F884301A46D7F88C10074806F0E6FB3B
:10114000054AD7F88430134400221A7000BF903744
:10115000BD4680BD50A400084404002080B596B070
:1011600002AF0023FB6007F110033C220021184668
:1011700006F0A5FB4FF0FF33BB6007F10C034022E4
:1011800019461048FFF79EFE07F10C030E4918465A
:1011900006F0E5FBF864FB6C002B0ED039463A1DD7
:1011A00007F1080300930B460849F86C06F018FB9A
:1011B0000346032B01D1BB6800E0BB6818465037DB
:1011C000BD4680BD5CA4000868A4000870A40008A7
:1011D00080B594B000AF0023FB6007F110033C2200
:1011E0000021184606F06BFB4FF0FF33BB604FF059
:1011F000FF337B6007F10C03402219461148FFF7CB
:1012000061FE07F10C031049184606F0A8FBF864CC
:10121000FB6C002B0FD03B1D07F108020B49F86C4B
:1012200006F0DEFA0346022B05D1BB68084A1360BC
:10123000074B1B6801E04FF0FF3318465037BD469F
:1012400080BD00BF80A400088CA4000894A40008FE
:1012500000000020F0B593B00CAFFFF717FFFFF7C9
:10126000C5FEFFF77BFF0346204A13600822204992
:101270002048FFF75FFEFFF7ABFF78611B4B1B6851
:101280001D4A12681B49098808461A4949880C46B4
:10129000184989880D461749C9880E461549098994
:1012A000F96014494989B9601249898979601149FD
:1012B000C9890B9179680A91B9680991F96808910F
:1012C0000796069505940490039202937B69019317
:1012D0000A4B00930A4B0B4A4FF480610A4806F010
:1012E0004BFA00BF1C37BD46F0BD00BF0800002010
:1012F00010000020340400200C0000208404002092
:1013000044040020A0A40008A404002080B5ADF58A
:10131000527D02AF07F55073A3F5007300221A60E7
:1013200004334FF4FE720021184606F0C8FAFFF7A6
:1013300091FF07F5A0734FF4007219465848FFF764
:10134000C1FD052000F05AFF07F5A0734FF40072AD
:1013500019465448FFF7B6FD052000F04FFF07F58A
:10136000A0734FF4007219464F48FFF7ABFD0520FC
:1013700000F044FF07F5A0734FF4007219464B4884
:10138000FFF7A0FD052000F039FF07F5A0734FF42B
:10139000007219464648FFF795FD052000F02EFF24
:1013A00007F5A0734FF4007219464248FFF78AFD13
:1013B000052000F023FF07F55073A3F540730022CA
:1013C0001A600433FC220021184606F078FA3A4BE2
:1013D0009B8A07F140000093374B384A4FF48071E5
:1013E00006F0CAF907F5A07107F140034FF4007247
:1013F0001846FFF767FD324B1B88184600F0FEFECB
:1014000007F5A0734FF4007219462E48FFF75AFDF6
:101410002B4B1B88184600F0F1FE2B48FEF728FFE7
:1014200003463846294A402106F0A6F907F5A0717F
:101430003B464FF400721846FFF744FD204B1B88D3
:10144000184600F0DBFE2048FEF712FF03469AB272
:101450004FF0FF331C491E4804F050FE184B1B8808
:10146000184600F0CBFE07F5A0734FF40072194642
:101470001848FFF727FD4FF4967000F0BFFE07F500
:10148000A0734FF4007219461348FFF71BFD0A20A2
:1014900000F0B4FE00BF07F55077BD4680BD00BF29
:1014A00050A5000870A5000890A50008A0A5000898
:1014B000B0A50008C0A50008A4080020D8A5000811
:1014C0000400002004A60008A404002030A60008A0
:1014D0002403002048A600085CA6000880B5ADF5EE
:1014E000007D00AF07F50073A3F5007300221A60BA
:1014F00004334FF4FE720021184606F0E0F93B4633
:101500004FF4007219460D48FFF7DCFC642000F030
:1015100075FE3B464FF4007219460948FFF7D2FCAE
:101520004FF4FA7000F06AFE3B46184600F00AF8E5
:1015300000BF07F50077BD4680BD00BF6CA6000860
:1015400078A6000880B584B000AF78607B68FB6047
:1015500025E0BB6800221A701749F86806F0FFF909
:101560000346002B15D1FB681B78002B11D00722F6
:101570001249F86806F0B8F90346002B09D1F8685B
:1015800000F022F80346002B03D00D48FFF784FC3F
:101590000EE0BB680D221A70BB680233FB6009497C
:1015A000F86806F0DCF9B860BB68002BD1D100BF49
:1015B00000BF1037BD4680BD88A6000890A6000871
:1015C00098A60008BCA6000880B5A4B002AF786059
:1015D00000233B6707F1740300221A605A609A6087
:1015E000DA600023FB6607F16C0307F170023349F0
:1015F000786806F0F5F80346022B59D107F15C0331
:10160000191D07F15C0207F1700007F15C030C3350
:10161000019307F15C03083300930B46284906F059
:10162000DFF80346042B43D10023C7F8843018E0C9
:10163000D7F884309B0088333B4453F82C3C002B74
:1016400008DBD7F884309B0088333B4453F82C3CAC
:10165000FF2B01DD00232CE0D7F884300133C7F8DD
:101660008430D7F88430032BE2DDFB6E002B1FDDC6
:10167000FB6EB3F5803F1BDA07F1700313221946A6
:10168000104806F043F9FB6E9AB20E4B9A820D4B4E
:101690009B8A07F10C0000930A4B0B4A502106F07D
:1016A0006BF807F10C031846FFF7F6FB012300E087
:1016B000002318468837BD4680BD00BFC0A600087D
:1016C000DCA60008A4080020E8A6000880B500AF4A
:1016D00000F018FD00F01CF800F0D2F900F0E0F87E
:1016E00000F06EF900F066F800F09AF900F018F9D1
:1016F000FFF70CFCFFF7F2FEFFF708FE034B1B8819
:10170000184600F07BFD00BFF4E700BF0600002094
:1017100080B596B000AF07F11403442200211846AB
:1017200006F0CDF83B4600221A605A609A60DA60F3
:101730001A614FF4007002F041FD0346002B01D006
:1017400000F0CEF902237B614FF480733B621023DB
:101750007B620223FB6302233B6401237B640A2335
:10176000BB640723FB6402233B6502237B6507F10F
:101770001403184602F078FD0346002B01D000F058
:10178000AFF90F233B6003237B600023BB60002382
:10179000FB6000233B613B460421184603F040F9FF
:1017A0000346002B01D000F09BF900BF5837BD461F
:1017B00080BD000080B58AB000AF07F11C03002295
:1017C0001A605A609A603B1D00221A605A609A6043
:1017D000DA601A615A612F4B2F4A1A602D4B002292
:1017E0005A602C4B00229A602A4B0022DA60294B67
:1017F00000221A61274B04225A61264B00221A76D6
:10180000244B00225A76234B0122DA61214B00221D
:1018100083F820201F4B00229A621E4B0022DA62BE
:101820001C4B002283F830201A4B00225A63194BBC
:10183000002283F83820174800F036FF0346002BBB
:1018400001D000F04DF90023FB6107F11C0319469C
:10185000104802F007F80346002B01D000F040F9D1
:101860000E4B7B600623BB600023FB607F233B6144
:1018700004237B610023BB613B1D1946054801F031
:1018800037FA0346002B01D000F02AF900BF2837B1
:10189000BD4680BD2002002000000450020030043C
:1018A00080B500AF1B4B1C4A1A601A4B1B4A5A608A
:1018B000184B00229A60174B0122DA60154B002268
:1018C0001A61144B00225A61124B00229A61114B8B
:1018D0000022DA610F4B00221A620E4802F02EFB42
:1018E0000346002B01D000F0FBF80021094802F06C
:1018F000C0FB0346002B01D000F0F2F800210548A0
:1019000002F002FC0346002B01D000F0E9F800BF12
:1019100080BD00BF8402002000540040E49CD11030
:1019200080B588B000AF07F1100300221A605A603A
:101930009A60DA603B1D00221A605A609A601E4B62
:101940004FF080421A601C4B1C4A5A601A4B00220E
:101950009A60194B47F22F52DA60174B00221A6136
:10196000154B00229A61144803F03AFF0346002BFE
:1019700001D000F0B5F84FF480533B6107F110033C
:1019800019460D4804F08AF80346002B01D000F0F8
:10199000A7F800237B600023FB603B1D1946064827
:1019A00004F0B8FA0346002B01D000F099F800BF0C
:1019B0002037BD4680BD00BFD80200207F3801001F
:1019C00080B500AF144B154A1A60134B4FF41652F2
:1019D0005A60114B00229A600F4B0022DA600E4BC6
:1019E00000221A610C4B0C225A610B4B00229A61A7
:1019F000094B0022DA61084B00221A62064B0022D2
:101A00005A62054804F02CFB0346002B01D000F07D
:101A100067F800BF80BD00BF24030020004C0040D9
:101A200080B500AF144B154A1A60134B4FF4165291
:101A30005A60114B00229A600F4B0022DA600E4B65
:101A400000221A610C4B0C225A610B4B00229A6146
:101A5000094B0022DA61084B00221A62064B002271
:101A60005A62054804F0FCFA0346002B01D000F04E
:101A700037F800BF80BD00BFAC0300200038014034
:101A800080B485B000AF154BDB6C144A43F00403FF
:101A9000D364124BDB6C03F00403FB60FB680F4B59
:101AA000DB6C0E4A43F00103D3640C4BDB6C03F098
:101AB0000103BB60BB68094BDB6C084A43F00203BF
:101AC000D364064BDB6C03F002037B607B6800BFD2
:101AD0001437BD465DF8047B704700BF001002401C
:101AE00080B400AF72B600BF00BFFDE780B483B022
:101AF00000AF0F4B1B6E0E4A43F0010313660C4BF5
:101B00001B6E03F001037B607B68094B9B6D084AE9
:101B100043F080539365064B9B6D03F080533B600D
:101B20003B6800BF0C37BD465DF8047B704700BFC3
:101B30000010024080B5ACB000AF786007F19C03A4
:101B400000221A605A609A60DA601A6107F1140381
:101B500088220021184605F0B2FE7B681B68354AD2
:101B6000934262D14FF480437B614FF08053C7F8BA
:101B70008C300223BB610123FB6108233B620723F6
:101B80007B620223BB620223FB624FF080733B63E4
:101B900007F11403184603F067F90346002B01D040
:101BA000FFF79EFF244BDB6C234A43F40053D364BE
:101BB000214BDB6C03F400533B613B691E4BDB6C38
:101BC0001D4A43F00403D3641B4BDB6C03F0040396
:101BD000FB60FB68184BDB6C174A43F00103D364CE
:101BE000154BDB6C03F00103BB60BB680F23C7F828
:101BF0009C300B23C7F8A0300023C7F8A43007F1AE
:101C00009C0319460D4801F0EFFF0F23C7F89C30E5
:101C10000B23C7F8A0300023C7F8A43007F19C03BA
:101C200019464FF0904001F0DFFF00BFB037BD46CE
:101C300080BD00BF000004500010024000080048B2
:101C400080B5ACB000AF786007F19C0300221A6049
:101C50005A609A60DA601A6107F114038822002141
:101C6000184605F02CFE7B681B68214A93423AD146
:101C700040237B6100237B6607F11403184603F0C1
:101C8000F3F80346002B01D0FFF72AFF194BDB6C5A
:101C9000184A43F00203D364164BDB6C03F00203D3
:101CA0003B613B69C023C7F89C301223C7F8A030C2
:101CB0000023C7F8A4300323C7F8A8300423C7F8CB
:101CC000AC3007F19C0319460B4801F08DFF094B1E
:101CD0009B6D084A43F400139365064B9B6D03F418
:101CE0000013FB60FB6800BFB037BD4680BD00BF7E
:101CF00000540040001002400004004880B584B049
:101D000000AF78607B681B68B3F1804F13D10C4B38
:101D10009B6D0B4A43F001039365094B9B6D03F0E8
:101D20000103FB60FB68002200211C2001F025FF5D
:101D30001C2001F03EFF00BF1037BD4680BD00BF34
:101D40000010024080B5AEB000AF786007F1A40388
:101D500000221A605A609A60DA601A6107F11C0367
:101D600088220021184605F0AAFD7B681B68434ABB
:101D700093423CD10823FB6100233B6607F11C031F
:101D8000184603F071F80346002B01D0FFF7A8FEB8
:101D90003B4B9B6D3A4A43F400239365384B9B6D54
:101DA00003F40023BB61BB69354BDB6C344A43F061
:101DB0000403D364324BDB6C03F004037B617B6967
:101DC0004FF44063C7F8A4300223C7F8A8300023BB
:101DD000C7F8AC300323C7F8B0300823C7F8B430D5
:101DE00007F1A4031946274801F0FEFE41E07B6895
:101DF0001B68254A93423CD10123FB6100237B658C
:101E000007F11C03184603F02FF80346002B01D0FE
:101E1000FFF766FE1A4B1B6E194A43F480431366A4
:101E2000174B1B6E03F480433B613B69144BDB6C27
:101E3000134A43F00103D364114BDB6C03F001033D
:101E4000FB60FB684FF4C063C7F8A4300223C7F8F7
:101E5000A8300023C7F8AC300323C7F8B0300723FD
:101E6000C7F8B43007F1A40319464FF0904001F0D1
:101E7000BBFE00BFB837BD4680BD00BF004C004070
:101E800000100240000800480038014080B400AF54
:101E900000BFFDE780B400AF00BFFDE780B400AF36
:101EA00000BFFDE780B400AF00BFFDE780B400AF26
:101EB00000BFFDE780B400AF00BFBD465DF8047B06
:101EC000704780B400AF00BFBD465DF8047B70472B
:101ED00080B400AF00BFBD465DF8047B704780B59D
:101EE00000AF00F06BF900BF80BD000080B500AF0F
:101EF000024803F0CCFC00BF80BD00BFD802002028
:101F000080B400AF01231846BD465DF8047B7047DE
:101F100080B582B000AF7860396005F081FD03467E
:101F200016221A604FF0FF3318460837BD4680BDB1
:101F300080B582B000AF78604FF0FF317868FFF76E
:101F4000E7FF00BFFDE780B586B000AFF860B9607D
:101F50007A6000237B610AE0AFF300800146BB6832
:101F60005A1CBA60CAB21A707B6901337B617A6904
:101F70007B689A42F0DB7B6818461837BD4680BD07
:101F800080B586B000AFF860B9607A6000237B61ED
:101F900009E0BB685A1CBA601B781846AFF3008092
:101FA0007B6901337B617A697B689A42F1DB7B68EC
:101FB00018461837BD4680BD80B483B000AF786046
:101FC0004FF0FF3318460C37BD465DF8047B704771
:101FD00080B483B000AF786039603B684FF4005242
:101FE0005A60002318460C37BD465DF8047B7047E5
:101FF00080B483B000AF7860012318460C37BD462B
:102000005DF8047B704780B485B000AFF860B960BC
:102010007A60002318461437BD465DF8047B70478C
:1020200080B586B000AF7860144A154BD31A7B6137
:102030007B693B61134B1B68002B02D1114B124A89
:102040001A60104B1A687B6813443A699A4207D2A7
:1020500005F0E6FC03460C221A604FF0FF3309E05E
:10206000084B1B68FB60074B1A687B681344054AE2
:102070001360FB6818461837BD4680BD00800120FC
:1020800000040000BC080020100A002080B400AF4B
:10209000064BD3F88830054A43F47003C2F8883001
:1020A00000BFBD465DF8047B704700BF00ED00E057
:1020B000DFF834D0FFF7EAFF0C480D490D4A002342
:1020C00002E0D458C4500433C4188C42F9D30A4AED
:1020D0000A4C002301E013600432A242FBD305F056
:1020E000A5FCFFF7F3FAFEE70080012000000020C6
:1020F00004020020FCAA000804020020100A0020AC
:10210000FEE7000080B582B000AF0023FB710C4BEE
:102110001B680B4A43F480731360032001F022FD17
:10212000002000F00FF80346002B02D00123FB71C2
:1021300001E0FFF7DBFCFB7918460837BD4680BDA0
:102140000020024080B584B000AF78600023FB73AC
:10215000174B1B78002B23D0164B1A68144B1B7897
:1021600019464FF47A73B3FBF1F3B2FBF3F318465D
:1021700001F02DFD0346002B0FD17B680F2B09D8F2
:10218000002279684FF0FF3001F0F7FC0A4A7B68C3
:10219000136007E00123FB7304E00123FB7301E0FC
:1021A0000123FB73FB7B18461037BD4680BD00BF83
:1021B00038000020300000203400002080B400AF40
:1021C000064B1B781A46064B1B681344044A1360DF
:1021D00000BFBD465DF8047B704700BF380000209B
:1021E000C008002080B400AF034B1B681846BD46F2
:1021F0005DF8047B704700BFC008002080B584B044
:1022000000AF7860FFF7EEFFB8607B68FB60FB68AB
:10221000B3F1FF3F05D00A4B1B781A46FB68134405
:10222000FB6000BFFFF7DEFF0246BB68D31AFA6807
:102230009A42F7D800BF00BF1037BD4680BD00BF2F
:102240003800002080B483B000AF786039607B68CC
:102250009B6823F47C123B681A437B689A6000BF3A
:102260000C37BD465DF8047B704780B483B000AF87
:10227000786039607B689B6823F0E0723B681A43A2
:102280007B689A6000BF0C37BD465DF8047B7047E1
:1022900080B483B000AF78607B689B6803F0E07324
:1022A00018460C37BD465DF8047B704780B487B094
:1022B00000AFF860B9607A603B60FB6860331A4633
:1022C000BB689B0013447B617B691A68084B134011
:1022D0007A6802F0F8413A680A43134343F0004237
:1022E0007B691A6000BF1C37BD465DF8047B7047F0
:1022F00000F0FF0380B485B000AF786039607B6880
:1023000060331A463B689B001344FB60FB681B6804
:1023100003F0F84318461437BD465DF8047B704758
:1023200080B487B000AFF860B9607A60FB68603352
:102330001A46BB689B0013447B617B691B6823F0D2
:1023400000427B681A437B691A6000BF1C37BD4698
:102350005DF8047B704780B483B000AF78607B6821
:10236000DB6803F44063002B01D1012300E000236C
:1023700018460C37BD465DF8047B704780B487B0C3
:1023800000AFF860B9607A60FB6830331A46BB680A
:102390001B0A9B0003F00C0313447B617B691A68E2
:1023A000BB6803F01F031F2101FA03F3DB431A404C
:1023B0007B689B0E03F01F01BB6803F01F0301FA4B
:1023C00003F31A437B691A6000BF1C37BD465DF8F2
:1023D000047B704780B487B000AFF860B9607A6062
:1023E000FB6814331A46BB685B0E9B0003F00403C2
:1023F00013447B617B691A68BB681B0D03F01F03E4
:10240000072101FA03F3DB431A40BB681B0D03F0FD
:102410001F03796801FA03F31A437B691A6000BF4E
:102420001C37BD465DF8047B7047000080B485B062
:1024300000AFF860B9607A60FB68D3F8B020BB6881
:10244000C3F31203DB431A407B6803F01803084907
:10245000D940BB680B40C3F312031A43FB68C3F8AF
:10246000B02000BF1437BD465DF8047B704700BF45
:10247000FFFF070080B483B000AF78607B689B6883
:1024800003F01F0318460C37BD465DF8047B704708
:1024900080B483B000AF78607B689B6803F46043CE
:1024A00018460C37BD465DF8047B704780B483B096
:1024B00000AF78607B689B6823F0204323F03F03E4
:1024C0007A68936000BF0C37BD465DF8047B7047A7
:1024D00080B483B000AF78607B689B6803F00053E2
:1024E000B3F1005F01D1012300E0002318460C374F
:1024F000BD465DF8047B704780B483B000AF786060
:102500007B689B6823F0104323F03F0343F0805225
:102510007B689A6000BF0C37BD465DF8047B70474E
:1025200080B483B000AF78607B689B6803F0805311
:10253000B3F1805F01D1012300E0002318460C377E
:10254000BD465DF8047B704780B483B000AF78600F
:102550007B689B6823F0004323F03F0343F00102B4
:102560007B689A6000BF0C37BD465DF8047B7047FE
:1025700080B483B000AF78607B689B6823F0004331
:1025800023F03F0343F002027B689A6000BF0C37E0
:10259000BD465DF8047B704780B483B000AF7860BF
:1025A0007B689B6803F00103012B01D1012300E04C
:1025B000002318460C37BD465DF8047B704780B495
:1025C00083B000AF78607B689B6803F00203022B46
:1025D00001D1012300E0002318460C37BD465DF809
:1025E000047B704780B483B000AF78607B689B68E1
:1025F00023F0004323F03F0343F004027B689A601A
:1026000000BF0C37BD465DF8047B704780B483B0D3
:1026100000AF78607B689B6823F0004323F03F03A2
:1026200043F010027B689A6000BF0C37BD465DF82E
:10263000047B704780B483B000AF78607B689B6890
:1026400003F00403042B01D1012300E0002318460A
:102650000C37BD465DF8047B704780B483B000AF93
:1026600078607B689B6823F0004323F03F0343F0CE
:1026700020027B689A6000BF0C37BD465DF8047B82
:10268000704780B483B000AF78607B689B6803F0CC
:102690000803082B01D1012300E0002318460C3762
:1026A000BD465DF8047B704790B589B000AF786097
:1026B0000023FB770023FB607B68002B01D1012303
:1026C00030E17B681B69002B7B685B6D002B09D1B7
:1026D0007868FFF72FFA7B6800229A657B680022F2
:1026E00083F850207B681B681846FFF7F1FE03460D
:1026F000002B04D07B681B681846FFF7D7FE7B6869
:102700001B681846FFF70CFF0346002B15D17B68AA
:102710001B681846FFF7F0FE844B1B689B09844A30
:10272000A2FB03239B0901335B00FB6002E0FB6813
:10273000013BFB60FB68002BF9D17B681B681846E6
:10274000FFF7EEFE0346002B0DD17B685B6D43F077
:1027500010027B685A657B689B6D43F001027B68C1
:102760009A650123FB777B681B681846FFF762FFB9
:1027700078617B685B6D03F01003002B40F0C9802B
:102780007B69002B40F0C5807B685B6D23F481730F
:1027900043F002027B685A657B681B681846FFF7A6
:1027A000FBFE0346002B15D16248FFF7F5FE0446F9
:1027B0006148FFF7F1FE03461C436048FFF7ECFE5B
:1027C00003462343002B05D17B685B6819465C48B0
:1027D000FFF738FD7B685B7E5A037B685B6B1A43AF
:1027E0007B68DB681A437B689B681A437B6893F8B5
:1027F00020301B041343BB617B6893F82030012B0E
:1028000006D17B685B6A013B5B04BA691343BB6119
:102810007B689B6A002B09D07B689B6A03F470720B
:102820007B68DB6A1343BA691343BB617B681B682F
:10283000DA68444B13407A681268B9690B43D36075
:102840007B681B681846FFF71CFF38617B69002B0B
:102850003DD13B69002B3AD17B681B7E9A037B6894
:1028600093F830305B001343BB617B681B68DB6807
:1028700023F4804323F002037A681268B9690B439A
:10288000D3607B6893F83830012B18D17B681B68C4
:102890001B6923F4FF6323F004037A68D16B7A6821
:1028A000126C11437A68526C11437A68926C0A4335
:1028B0001A437B681B6842F001021A6107E07B68DB
:1028C0001B681A697B681B6822F001021A617B6829
:1028D0001B69012B0CD17B681B681B6B23F00F015C
:1028E0007B68DB695A1E7B681B680A431A6307E032
:1028F0007B681B681A6B7B681B6822F00F021A63E7
:102900007B685B6D23F0030343F001027B685A652B
:1029100007E07B685B6D43F010027B685A6501231A
:10292000FB77FB7F18462437BD4690BD3000002062
:10293000632D3E05000004500001045000020450C5
:102940000003045007C0F0FF80B586B000AF786088
:102950005748FFF78FFD38617B681B681846FFF703
:1029600069FE0346002B40F09C807B6893F8503052
:10297000012B01D1022397E07B68012283F85020CC
:10298000786800F063FE0346FB75FB7D002B40F08A
:1029900083807B685B6D23F4706323F0010343F451
:1029A00080727B685A657B681B68424A934202D0FA
:1029B0007B681B6800E0404B7A681268934202D043
:1029C0003B69002B05D17B685B6D23F480127B682B
:1029D0005A657B685B6D03F48053B3F5805F06D165
:1029E0007B689B6D23F006027B689A6502E07B683A
:1029F00000229A657B681B681C221A607B68002293
:102A000083F850207B681B682A4A934202D07B6877
:102A10001B6800E0284B7A681268934208D03B6933
:102A2000002B05D03B69052B02D03B69092B14D143
:102A30007B681B68DB6803F00073002B07D07B68A2
:102A40005B6D23F4405343F480527B685A657B6886
:102A50001B681846FFF7C6FD25E07B685B6D43F4F5
:102A600080127B685A657B681B68124A934202D0C9
:102A70007B681B6800E0104BFB60FB68DB6803F0C1
:102A80000073002B0FD07B685B6D23F4405343F43D
:102A900080527B685A6506E07B68002283F85020EC
:102AA00001E00223FB75FB7D18461837BD4680BD4B
:102AB00000030450000104500000045080B584B0AD
:102AC00000AF78607B6893F85030012B01D102236E
:102AD00023E07B68012283F850200321786800F00E
:102AE000F9FC0346FB73FB7B002B11D1786800F0E7
:102AF00033FE0346FB73FB7B002B09D17B685B6DC8
:102B000023F4885323F0010343F001027B685A65E4
:102B10007B68002283F85020FB7B18461037BD46A7
:102B200080BD000080B588B000AF7860396066482D
:102B3000FFF7A0FC78617B685B69082B02D1082352
:102B4000FB612AE07B69002B05D07B69052B02D055
:102B50007B69092B11D17B681B68DB6803F00103DB
:102B6000002B07D07B685B6D43F020027B685A65C1
:102B70000123A4E00423FB610FE05348FFF788FC26
:102B80000346002B07D07B685B6D43F020027B6817
:102B90005A65012393E00423FB61FFF723FB3861AF
:102BA00021E03B68B3F1FF3F1DD0FFF71BFB02465E
:102BB0003B69D31A3A689A4202D33B68002B12D180
:102BC0007B681B681A68FB691340002B0BD17B687C
:102BD0005B6D43F004027B685A657B68002283F8D2
:102BE000502003236BE07B681B681A68FB69134065
:102BF000002BD6D07B685B6D43F400727B685A650E
:102C00007B681B681846FFF7A6FB0346002B1CD009
:102C10007B685B7E002B18D17B681B681B6803F008
:102C20000803082B11D17B685B6D23F480727B68ED
:102C30005A657B685B6D03F48053002B05D17B687C
:102C40005B6D43F001027B685A657B681B681F4A15
:102C5000934202D07B681B6800E01D4B7A681268C3
:102C6000934208D07B69002B05D07B69052B02D0ED
:102C70007B69092B04D17B681B68DB68BB610CE0B6
:102C80007B681B68114A934202D07B681B6800E096
:102C90000F4BFB60FB68DB68BB61FB69082B04D151
:102CA0007B681B6808221A6008E0BB6903F4804354
:102CB000002B03D17B681B680C221A600023184686
:102CC0002037BD4680BD00BF000304500001045002
:102CD0000000045080B483B000AF78607B681B684C
:102CE0001B6C18460C37BD465DF8047B704700002E
:102CF00080B5B6B000AF78603960002387F8D73070
:102D00000023BB607B6893F85030012B01D1022374
:102D1000C9E37B68012283F850207B681B68184652
:102D2000FFF788FC0346002B40F0AA833B685B68F2
:102D3000C7F8D0303B685B68052B24D83B685B68DC
:102D4000023B032B1BD801A252F823F05D2D000893
:102D5000652D00086D2D0008752D00080C23C7F89F
:102D6000D03010E01223C7F8D0300CE01823C7F899
:102D7000D03008E04FF48073C7F8D03003E006236A
:102D8000C7F8D03000BF7B6818683B681B681A46DC
:102D9000D7F8D010FFF7F2FA7B681B681846FFF7E8
:102DA00049FCC7F8CC007B681B681846FFF769FC34
:102DB000C7F8C800D7F8CC30002B40F0A481D7F872
:102DC000C830002B40F09F817B6818683B68196809
:102DD0003B689B681A46FFF7FDFA3B685A697B68B7
:102DE0001B68DB68DB0803F003035B0002FA03F3F4
:102DF000C7F8C4303B681B69042B0AD07B6818688D
:102E00003B6819693B681A68D7F8C430FFF74EFA77
:102E100079E17B681B6800211846FFF76BFA0346CF
:102E2000C3F31203002B0AD17B681B6800211846EC
:102E3000FFF760FA03469B0E03F01F021EE07B685B
:102E40001B6800211846FFF755FA0346C7F8B8304B
:102E5000D7F8B83093FAA3F3C7F8B430D7F8B43042
:102E6000C7F8BC30D7F8BC30002B01D1202304E0D8
:102E7000D7F8BC30B3FA83F3DBB21A463B681B6861
:102E8000C3F31203002B05D13B681B689B0E03F0B4
:102E90001F0318E03B681B68C7F8AC30D7F8AC30AC
:102EA00093FAA3F3C7F8A830D7F8A830C7F8B03022
:102EB000D7F8B030002B01D1202304E0D7F8B03090
:102EC000B3FA83F3DBB29A4206D17B681B68002217
:102ED00000211846FFF724FA7B681B680121184679
:102EE000FFF708FA0346C3F31203002B0AD17B68ED
:102EF0001B6801211846FFF7FDF903469B0E03F0FE
:102F00001F021EE07B681B6801211846FFF7F2F9DB
:102F10000346C7F8A030D7F8A03093FAA3F3C7F858
:102F20009C30D7F89C30C7F8A430D7F8A430002BD9
:102F300001D1202304E0D7F8A430B3FA83F3DBB245
:102F40001A463B681B68C3F31203002B05D13B688C
:102F50001B689B0E03F01F0318E03B681B68C7F853
:102F60009430D7F8943093FAA3F3C7F89030D7F899
:102F70009030C7F89830D7F89830002B01D1202333
:102F800004E0D7F89830B3FA83F3DBB29A4206D163
:102F90007B681B68002201211846FFF7C1F97B6896
:102FA0001B6802211846FFF7A5F90346C3F3120375
:102FB000002B0AD17B681B6802211846FFF79AF99B
:102FC00003469B0E03F01F021EE07B681B68022174
:102FD0001846FFF78FF90346C7F88830D7F88830CE
:102FE00093FAA3F3C7F88430D7F88430C7F88C304D
:102FF000D7F88C30002B01D1202304E0D7F88C3097
:10300000B3FA83F3DBB21A463B681B68C3F31203BF
:10301000002B05D13B681B689B0E03F01F0314E0D7
:103020003B681B68FB67FB6F93FAA3F3BB67BB6F3F
:10303000C7F88030D7F88030002B01D1202304E07E
:10304000D7F88030B3FA83F3DBB29A4206D17B68BB
:103050001B68002202211846FFF762F97B681B6893
:1030600003211846FFF746F90346C3F31203002B6A
:103070000AD17B681B6803211846FFF73BF903461A
:103080009B0E03F01F0217E07B681B6803211846A4
:10309000FFF730F903463B673B6F93FAA3F3FB66F8
:1030A000FB6E7B677B6F002B01D1202303E07B6FDE
:1030B000B3FA83F3DBB21A463B681B68C3F312030F
:1030C000002B05D13B681B689B0E03F01F0311E02A
:1030D0003B681B687B667B6E93FAA3F33B663B6E93
:1030E000BB66BB6E002B01D1202303E0BB6EB3FA9D
:1030F00083F3DBB29A4206D17B681B68002203216E
:103100001846FFF70DF97B681B681846FFF744FA6D
:103110000346002B40F040817B6818683B681968C3
:103120003B68DB681A46FFF781F93B68DB688F4A2A
:10313000934240F031817B6818683B681B68C3F399
:103140001203002B0BD13B681B689B0E013303F06D
:103150001F03092B94BF01230023DBB219E03B6856
:103160001B68BB65BB6D93FAA3F37B657B6DFB6549
:10317000FB6D002B01D1202303E0FB6DB3FA83F339
:10318000DBB2013303F01F03092B94BF012300239B
:10319000DBB2002B79D03B681B68C3F31203002B12
:1031A00007D13B681B689B0E01339B0603F0F84276
:1031B00015E03B681B68FB64FB6C93FAA3F3BB64EC
:1031C000BB6C3B653B6D002B01D1202303E03B6DC5
:1031D000B3FA83F3DBB201339B0603F0F8423B689A
:1031E0001B68C3F31203002B09D13B681B689B0EBD
:1031F000013303F01F03012101FA03F317E03B68D9
:103200001B683B643B6C93FAA3F3FB63FB6B7B642F
:103210007B6C002B01D1202303E07B6CB3FA83F39A
:10322000DBB2013303F01F03012101FA03F342EA89
:1032300003013B681B68C3F31203002B0AD13B68F0
:103240001B689B0E013303F01F0213465B001344FF
:103250001B0518E03B681B687B637B6B93FAA3F349
:103260003B633B6BBB63BB6B002B01D1202303E0B3
:10327000BB6BB3FA83F3DBB2013303F01F021346D7
:103280005B0013441B050B4381E03B681B68C3F3E1
:103290001203002B07D13B681B689B0E01339B0672
:1032A00003F0F84215E03B681B68BB62BB6A93FA07
:1032B000A3F37B627B6AFB62FB6A002B01D12023B4
:1032C00003E0FB6AB3FA83F3DBB201339B0603F03E
:1032D000F8423B681B68C3F31203002B09D13B681B
:1032E0001B689B0E013303F01F03012101FA03F356
:1032F00017E03B681B68FB61FB6993FAA3F3BB61B2
:10330000BB693B623B6A002B01D1202303E03B6A8F
:10331000B3FA83F3DBB2013303F01F03012101FA97
:1033200003F342EA03013B681B68C3F31203002B5B
:103330000DD13B681B689B0E013303F01F0213463F
:103340005B0013441E3B1B0543F000731EE03B680B
:103350001B683B613B6993FAA3F3FB60FB687B61ED
:103360007B69002B04D1202306E000BF00007F40D2
:103370007B69B3FA83F3DBB2013303F01F02134618
:103380005B0013441E3B1B0543F000730B433A687C
:1033900092681946FFF71EF83B681A68444B1340C1
:1033A000002B7AD04348FEF773FFC7F8C0003B6894
:1033B0001B68414A93422CD1D7F8C03003F4000374
:1033C000002B26D17B681B683C4A934204D07B6863
:1033D0001B683B4A93425DD1D7F8C03043F40003E9
:1033E00019463448FEF741FF364B1B689B09364AA5
:1033F000A2FB03239B095A1C13465B0013449B004A
:10340000BB6002E0BB68013BBB60BB68002BF9D12D
:1034100040E03B681B682D4A934218D1D7F8C03072
:1034200003F08073002B12D17B681B68234A934200
:1034300004D07B681B68224A93422DD1D7F8C03054
:1034400043F0807319461B48FEF70FFF24E03B68EA
:103450001B681F4A934220D1D7F8C03003F4800381
:10346000002B1AD17B681B68144A934215D1D7F8F8
:10347000C03043F4800319460E48FEF7F6FE0CE018
:103480007B685B6D43F020027B685A65012387F8F7
:10349000D73002E000BF00E000BF7B68002283F865
:1034A000502097F8D7301846D837BD4680BD00BFAA
:1034B0000000088000030450000052C700000450C0
:1034C0000002045030000020632D3E05000084CB34
:1034D0000100008080B588B000AF786039600023BB
:1034E000FB613B68BB617B681B681846FFF7A2F86D
:1034F00038617B681B681846FFF7C3F8F8603B69C2
:10350000002B03D1FB68002B00F098807B681B68C0
:10351000DB6803F00073002B2AD07B685B7E012BF5
:1035200026D17B681B7E012B22D10123BB6114E0D5
:10353000FB69454A93420DD97B685B6D43F01002ED
:103540007B685A657B689B6D43F001027B689A65D6
:10355000012374E0FB690133FB617B681B681B6816
:1035600003F04003402BE3D17B681B6840221A60C4
:10357000BB69022B14D07B681B681846FFF75AF80A
:103580000346002B0CD07B681B681846FFF717F822
:103590000346002B04D17B681B681846FFF736F8FA
:1035A000BB69012B14D07B681B681846FFF769F8CC
:1035B0000346002B0CD07B681B681846FEF7FFFF04
:1035C0000346002B04D17B681B681846FFF745F8BB
:1035D000BB69022B05D0BB69032B05D10C237B6192
:1035E00005E008237B6102E004237B6100BFFEF756
:1035F000F9FDB8601BE0FEF7F5FD0246BB68D31A83
:10360000052B14D97B681B689A687B691340002BD3
:103610000DD07B685B6D43F010027B685A657B6858
:103620009B6D43F001027B689A65012307E07B688C
:103630001B689A687B691340002BDCD10023184675
:103640002037BD4680BD00BFFFFF3FA380B584B0DB
:1036500000AF78600023BB607B681B681846FEF7EC
:103660009BFF0346002B69D17B681B689A68364B29
:103670001340002B0DD07B685B6D43F010027B681C
:103680005A657B689B6D43F001027B689A65012354
:1036900055E07B681B681846FEF756FF2B48FEF77F
:1036A000F7FD034603F40003002B13D0284B1B68DF
:1036B0009B09284AA2FB03239B095A1C13465B0063
:1036C00013449B00BB6002E0BB68013BBB60BB686E
:1036D000002BF9D1FEF786FDF86028E07B681B68B7
:1036E0001846FEF759FF0346002B04D17B681B6880
:1036F0001846FEF729FFFEF775FD0246FB68D31A50
:10370000022B14D97B681B681B6803F00103012B93
:103710000DD07B685B6D43F010027B685A657B6857
:103720009B6D43F001027B689A65012307E07B688B
:103730001B681B6803F00103012BCFD1002318463F
:103740001037BD4680BD00BF3F000080000304501D
:1037500030000020632D3E0580B584B000AF786056
:103760007B681B681846FEF72AFFF8607B681B68B9
:103770001846FEF711FF0346002B47D0FB68002BCD
:1037800044D17B681B689B6803F00D03012B0CD1AF
:103790007B681B681846FEF7EBFE7B681B680322FC
:1037A0001A60FEF71FFDB86029E07B685B6D43F08F
:1037B00010027B685A657B689B6D43F001027B6851
:1037C0009A65012323E0FEF70DFD0246BB68D31A7C
:1037D000022B14D97B681B689B6803F00103002B44
:1037E0000DD07B685B6D43F010027B685A657B6887
:1037F0009B6D43F001027B689A65012307E07B68BB
:103800001B689B6803F00103002BDCD100231846E2
:103810001037BD4680BD80B483B000AF78607B6850
:103820009B6803F00103012B01D1012300E0002379
:1038300018460C37BD465DF8047B704780B483B0F2
:1038400000AF78607B689B6803F00403042B01D110
:10385000012300E0002318460C37BD465DF8047BC9
:103860007047000090B59FB000AF786039600023CA
:1038700087F877307B6893F85030012B01D1022311
:1038800093E07B68012283F850200023FB6500232E
:103890003B667B681B68474A934202D1464BBB603C
:1038A00001E00023BB60BB68002B0BD17B685B6D24
:1038B00043F020027B685A657B68002283F8502021
:1038C000012372E0BB681846FFF7B8FF38677B68D2
:1038D0001B681846FFF7B2FF0346002B54D13B6F1D
:1038E000002B51D1354BFB663B681B68002B2CD05D
:1038F000FB6E9B6823F460423B6859687B6893F8D1
:1039000030305B030B431A43FB6E9A602948FFF784
:1039100082FF04462848FFF77EFF03461C432848E1
:10392000FFF779FF03462343002B37D1FB6E9B68DB
:1039300023F4716323F00F033A6811683A689268C0
:103940000A431A43FB6E9A6028E0FB6E9B6823F4DF
:103950006042FB6E9A601748FFF75DFF0446164809
:10396000FFF759FF03461C431548FFF754FF034672
:103970002343002B12D1FB6E9B6823F4716323F069
:103980000F03FA6E936009E07B685B6D43F02002E1
:103990007B685A65012387F8773000E000BF7B68B9
:1039A000002283F8502097F8773018467C37BD46C0
:1039B00090BD00BF000004500001045000030450FB
:1039C0000002045080B485B000AF78607B6803F0DB
:1039D0000703FB600C4BDB68BB60BA684FF6FF0364
:1039E0001340BB60FB681A02BB68134343F0BF631C
:1039F00043F40033BB60044ABB68D36000BF143794
:103A0000BD465DF8047B704700ED00E080B400AF78
:103A1000044BDB681B0A03F007031846BD465DF83C
:103A2000047B704700ED00E080B483B000AF034634
:103A3000FB7197F90730002B0BDBFB7903F01F02BA
:103A4000074997F907305B09012000FA02F241F8B3
:103A5000232000BF0C37BD465DF8047B704700BFD4
:103A600000E100E080B483B000AF03463960FB7131
:103A700097F90730002B0ADB3B68DAB20C4997F95B
:103A800007301201D2B20B4483F800230AE03B68EE
:103A9000DAB20849FB7903F00F03043B1201D2B2FA
:103AA0000B441A7600BF0C37BD465DF8047B7047A7
:103AB00000E100E000ED00E080B489B000AFF86004
:103AC000B9607A60FB6803F00703FB61FB69C3F12F
:103AD0000703042B28BF0423BB61FB690433062BB7
:103AE00002D9FB69033B00E000237B614FF0FF320A
:103AF000BB6902FA03F3DA43BB681A407B699A4058
:103B00004FF0FF317B6901FA03F3D9437B680B4027
:103B1000134318462437BD465DF8047B7047000008
:103B200080B582B000AF78607B68013BB3F1807FE5
:103B300001D301230FE00A4A7B68013B53600F2148
:103B40004FF0FF30FFF78EFF054B00229A60044BC9
:103B500007221A60002318460837BD4680BD00BF03
:103B600010E000E080B582B000AF78607868FFF7C1
:103B700029FF00BF0837BD4680BD80B586B000AFC5
:103B80000346B9607A60FB7300237B61FFF73EFF59
:103B900078617A68B9687869FFF78EFF024697F90D
:103BA0000F3011461846FFF75DFF00BF1837BD46BE
:103BB00080BD80B582B000AF0346FB7197F9073036
:103BC0001846FFF731FF00BF0837BD4680BD80B5FE
:103BD00082B000AF78607868FFF7A2FF034618460E
:103BE0000837BD4680BD000080B487B000AF786064
:103BF000396000237B617FE13B681A6801217B69A2
:103C000001FA03F31340FB60FB68002B00F07181A5
:103C10003B685B6803F00303012B05D03B685B68DE
:103C200003F00303022B30D17B689B683B617B6907
:103C30005B00032202FA03F3DB433A6913403B6162
:103C40003B68DA687B695B0002FA03F33A69134365
:103C50003B617B683A699A607B685B683B610122E3
:103C60007B6902FA03F3DB433A6913403B613B682B
:103C70005B681B0903F001027B6902FA03F33A69EE
:103C800013433B617B683A695A603B685B6803F0A9
:103C90000303032B18D17B68DB6A3B6101227B693C
:103CA00002FA03F3DB433A6913403B613B685B680C
:103CB000DB0803F001027B6902FA03F33A6913435C
:103CC0003B617B683A69DA623B685B6803F0030337
:103CD000032B17D07B68DB683B617B695B000322A9
:103CE00002FA03F3DB433A6913403B613B689A688D
:103CF0007B695B0002FA03F33A6913433B617B681B
:103D00003A69DA603B685B6803F00303022B23D156
:103D10007B69DA087B68083253F822303B617B69A3
:103D200003F007039B000F2202FA03F3DB433A6917
:103D300013403B613B681A697B6903F007039B00F2
:103D400002FA03F33A6913433B617B69DA087B6843
:103D50000832396943F822107B681B683B617B6934
:103D60005B00032202FA03F3DB433A6913403B6131
:103D70003B685B6803F003027B695B0002FA03F3B4
:103D80003A6913433B617B683A691A603B685B6838
:103D900003F44033002B00F0AC805F4B1B6E5E4A97
:103DA00043F0010313665C4B1B6E03F00103BB6021
:103DB000BB685A4A7B699B08023352F823303B6147
:103DC0007B6903F003039B000F2202FA03F3DB433A
:103DD0003A6913403B617B68B3F1904F25D07B6813
:103DE0004F4A93421FD07B684E4A934219D07B685A
:103DF0004D4A934213D07B684C4A93420DD07B6866
:103E00004B4A934207D07B684A4A934201D106232A
:103E10000CE007230AE0052308E0042306E003235F
:103E200004E0022302E0012300E000237A6902F0AB
:103E30000302920093403A6913433B6137497B691F
:103E40009B0802333A6941F823203B4B9B683B6156
:103E5000FB68DB433A6913403B613B685B6803F4F2
:103E60008013002B03D03A69FB6813433B61324A4D
:103E70003B699360304BDB683B61FB68DB433A692D
:103E800013403B613B685B6803F40013002B03D0D5
:103E90003A69FB6813433B61274A3B69D360264B71
:103EA0005B683B61FB68DB433A6913403B613B68FD
:103EB0005B6803F40033002B03D03A69FB681343BB
:103EC0003B611D4A3B6953601B4B1B683B61FB68B0
:103ED000DB433A6913403B613B685B6803F4803322
:103EE000002B03D03A69FB6813433B61124A3B69DC
:103EF00013607B6901337B613B681A687B6922FA36
:103F000003F3002B7FF478AE00BF00BF1C37BD4623
:103F10005DF8047B704700BF0010024000000140C4
:103F20000004004800080048000C00480010004849
:103F300000140048001800480004014080B582B019
:103F400000AF78607B68002B01D101238DE07B6896
:103F500093F84130DBB2002B06D17B68002283F856
:103F600040207868FDF76CFE7B68242283F84120AE
:103F70007B681B681A687B681B6822F001021A6064
:103F80007B685A687B681B6822F070621A617B68E4
:103F90001B689A687B681B6822F400429A607B6801
:103FA000DB68012B07D17B689A687B681B6842F449
:103FB00000429A6006E07B689A687B681B6842F45E
:103FC00004429A607B68DB68022B08D17B681B681F
:103FD0005A687B681B6842F400625A6007E07B689D
:103FE0001B685A687B681B6822F400625A607B6811
:103FF0001B685B687A68126843F0007343F40043FF
:1040000053607B681B68DA687B681B6822F4004297
:10401000DA607B681A697B685B6942EA03017B6846
:104020009B691A027B681B680A43DA607B68D9695E
:104030007B681A6A7B681B680A431A607B681B6886
:104040001A687B681B6842F001021A607B680022D4
:104050005A647B68202283F841207B6800221A631F
:104060007B68002283F84220002318460837BD46AB
:1040700080BD80B483B000AF786039607B6893F80E
:104080004130DBB2202B38D17B6893F84030012BD4
:1040900001D1022332E07B68012283F840207B6853
:1040A000242283F841207B681B681A687B681B68A0
:1040B00022F001021A607B681B681A687B681B6823
:1040C00022F480521A607B681B6819687B681B6841
:1040D0003A680A431A607B681B681A687B681B6829
:1040E00042F001021A607B68202283F841207B683D
:1040F000002283F84020002300E0022318460C37FA
:10410000BD465DF8047B704780B485B000AF786031
:1041100039607B6893F84130DBB2202B39D17B6862
:1041200093F84030012B01D1022333E07B68012258
:1041300083F840207B68242283F841207B681B6839
:104140001A687B681B6822F001021A607B681B6892
:104150001B68FB60FB6823F47063FB603B681B0219
:10416000FA681343FB607B681B68FA681A607B6817
:104170001B681A687B681B6842F001021A607B6842
:10418000202283F841207B68002283F8402000230E
:1041900000E0022318461437BD465DF8047B7047E3
:1041A00080B400AF044B1B6803F4C0631846BD46DF
:1041B0005DF8047B704700BF0070004080B485B09C
:1041C00000AF78607B68B3F5007F30D1234B1B686C
:1041D00003F4C063B3F5007F38D0204B1B6823F491
:1041E000C0631E4A43F4007313601D4B1B683222E8
:1041F00002FB03F31B4AA2FB03239B0C0133FB606E
:1042000002E0FB68013BFB60144B5B6903F48063D5
:10421000B3F5806F02D1FB68002BF2D10F4B5B69C5
:1042200003F48063B3F5806F10D103230FE00B4BD1
:104230001B6803F4C063B3F5806F07D0074B1B689E
:1042400023F4C063054A43F48063136000231846D7
:104250001437BD465DF8047B704700BF0070004016
:104260003000002083DE1B4380B588B000AF78604B
:104270007B68002B01D10123CAE3974B9B6803F0B5
:104280000C03BB61944BDB6803F003037B617B6829
:104290001B6803F01003002B00F0E480BB69002BC7
:1042A00007D0BB690C2B40F08B807B69012B40F061
:1042B0008780894B1B6803F00203002B05D07B68C5
:1042C0009B69002B01D10123A2E37B681A6A824B10
:1042D0001B6803F00803002B04D07F4B1B6803F01E
:1042E000F00305E07C4BD3F894301B0903F0F00396
:1042F000934223D27B681B6A184600F055FD0346A3
:10430000002B01D0012383E3734B1B68724A43F0F7
:1043100008031360704B1B6823F0F0027B681B6A74
:104320006D4913430B606C4B5B6823F47F427B68E1
:10433000DB691B02684913434B6025E0664B1B6831
:10434000654A43F008031360634B1B6823F0F002D7
:104350007B681B6A604913430B605F4B5B6823F407
:104360007F427B68DB691B025B4913434B60BB697F
:10437000002B09D17B681B6A184600F015FD034627
:10438000002B01D0012343E300F04AFC0246524BCC
:104390009B681B0903F00F035049CB5C03F01F031C
:1043A00022FA03F34E4A13604E4B1B681846FDF782
:1043B000C9FE0346FB73FB7B002B52D0FB7B27E33C
:1043C0007B689B69002B32D0434B1B68424A43F009
:1043D00001031360FDF706FF386108E0FDF702FFF7
:1043E00002463B69D31A022B01D9032310E33A4B4F
:1043F0001B6803F00203002BF0D0374B1B68364AD2
:1044000043F008031360344B1B6823F0F0027B6811
:104410001B6A314913430B602F4B5B6823F47F42C7
:104420007B68DB691B022C4913434B601AE02A4B63
:104430001B68294A23F001031360FDF7D3FE38619E
:1044400008E0FDF7CFFE02463B69D31A022B01D9E3
:104450000323DDE2204B1B6803F00203002BF0D1A5
:1044600000E000BF7B681B6803F00103002B74D0E1
:10447000BB69082B05D0BB690C2B0ED17B69032BC4
:104480000BD1154B1B6803F40033002B64D07B6801
:104490005B68002B60D10123BAE27B685B68B3F5EF
:1044A000803F06D10C4B1B680B4A43F480331360EA
:1044B00026E07B685B68B3F5A02F15D1064B1B681F
:1044C000054A43F480231360034B1B68024A43F4FC
:1044D0008033136014E000BF0010024018A70008EA
:1044E0003000002034000020A04B1B689F4A23F4BA
:1044F000803313609D4B1B689C4A23F48023136018
:104500007B685B68002B13D0FDF76CFE386108E018
:10451000FDF768FE02463B69D31A642B01D90323D9
:1045200076E2924B1B6803F40033002BF0D014E0CA
:10453000FDF758FE386108E0FDF754FE02463B697E
:10454000D31A642B01D9032362E2884B1B6803F45E
:104550000033002BF0D100E000BF7B681B6803F044
:104560000203002B60D0BB69042B05D0BB690C2B68
:1045700019D17B69022B16D17C4B1B6803F4806335
:10458000002B05D07B68DB68002B01D101233FE2C3
:10459000764B5B6823F0F8527B681B691B067349F6
:1045A00013434B6040E07B68DB68002B23D06F4BEC
:1045B0001B686E4A43F480731360FDF713FE386185
:1045C00008E0FDF70FFE02463B69D31A022B01D922
:1045D00003231DE2654B1B6803F48063002BF0D0BE
:1045E000624B5B6823F0F8527B681B691B065F49CE
:1045F00013434B6018E05D4B1B685C4A23F48073E7
:104600001360FDF7EFFD386108E0FDF7EBFD0246B2
:104610003B69D31A022B01D90323F9E1534B1B68E1
:1046200003F48063002BF0D17B681B6803F0080360
:10463000002B3CD07B685B69002B1CD04B4BD3F824
:1046400094304A4A43F00103C2F89430FDF7CAFDA2
:10465000386108E0FDF7C6FD02463B69D31A022B1C
:1046600001D90323D4E1414BD3F8943003F0020382
:10467000002BEFD01BE03D4BD3F894303B4A23F0A6
:104680000103C2F89430FDF7ADFD386108E0FDF795
:10469000A9FD02463B69D31A022B01D90323B7E1D6
:1046A000324BD3F8943003F00203002BEFD17B6838
:1046B0001B6803F00403002B00F0A6800023FB77A7
:1046C0002A4B9B6D03F08053002B0DD1274B9B6D24
:1046D000264A43F080539365244B9B6D03F080532F
:1046E000BB60BB680123FB77214B1B6803F480731D
:1046F000002B18D11E4B1B681D4A43F480731360B6
:10470000FDF770FD386108E0FDF76CFD02463B697E
:10471000D31A022B01D903237AE1154B1B6803F44A
:104720008073002BF0D07B689B68012B08D10F4B66
:10473000D3F890300D4A43F00103C2F8903029E0DD
:104740007B689B68052B15D1084BD3F89030074A3E
:1047500043F00403C2F89030044BD3F89030034A7E
:1047600043F00103C2F8903014E000BF0010024093
:10477000007000409C4BD3F890309B4A23F001031B
:10478000C2F89030984BD3F89030974A23F0040346
:10479000C2F890307B689B68002B16D0FDF722FD95
:1047A00038610AE0FDF71EFD02463B69D31A41F26B
:1047B0008832934201D903232AE18B4BD3F89030FE
:1047C00003F00203002BEDD015E0FDF70BFD38617F
:1047D0000AE0FDF707FD02463B69D31A41F2883231
:1047E000934201D9032313E17F4BD3F8903003F0B8
:1047F0000203002BEDD1FB7F012B05D17A4B9B6D82
:10480000794A23F0805393657B689B6A002B00F004
:10481000FE807B689B6A022B40F0D080724BDB6885
:104820007B617B6903F003027B68DB6A9A4230D1CB
:104830007B6903F070027B681B6B013B1B019A4292
:1048400027D17B6903F4FE427B685B6B1B029A42B3
:104850001FD17B6903F400337A68926B072A14BF77
:1048600001220022D2B2934213D17B6903F4C00229
:104870007B68DB6B5B08013B5B059A4209D17B6976
:1048800003F0C0627B681B6C5B08013B5B069A42CD
:104890006ED0BB690C2B69D0534B1B6803F080634F
:1048A000002B05D1504B1B6803F08053002B01D027
:1048B0000123ADE04C4B1B684B4A23F0807313601F
:1048C000FDF790FC386108E0FDF78CFC02463B697F
:1048D000D31A022B01D903239AE0434B1B6803F040
:1048E0000073002BF0D1404BDA68404B13407A68DC
:1048F000D16A7A68126B013A120111437A68526BDD
:10490000120211437A68D26B5208013A52051143E0
:104910007A68126C5208013A520611437A68926B17
:10492000120952040A4330491343CB602E4B1B68D3
:104930002D4A43F0807313602B4BDB682A4A43F007
:104940008073D360FDF74EFC386108E0FDF74AFC48
:1049500002463B69D31A022B01D9032358E0224BAC
:104960001B6803F00073002BF0D050E001234FE0F0
:104970001D4B1B6803F00073002B48D11A4B1B68BA
:10498000194A43F080731360174BDB68164A43F0F3
:104990008073D360FDF726FC386108E0FDF722FC48
:1049A00002463B69D31A022B01D9032330E00E4B98
:1049B0001B6803F00073002BF0D028E0BB690C2BC0
:1049C00023D0094B1B68084A23F080731360FDF75E
:1049D00009FC38610CE0FDF705FC02463B69D31A7F
:1049E000022B05D9032313E0001002408C809DF9AF
:1049F000094B1B6803F00073002BECD1064BDA68FF
:104A00000549064B1340CB6001E0012300E0002381
:104A100018462037BD4680BD00100240FCFFEEFE68
:104A200080B584B000AF786039607B68002B01D11D
:104A30000123E7E0754B1B6803F007033A689A42CD
:104A400010D9724B1B6823F0070270493B6813436F
:104A50000B606E4B1B6803F007033A689A4201D063
:104A60000123CFE07B681B6803F00203002B10D00A
:104A70007B689A68664B9B6803F0F0039A4208D9FA
:104A8000634B9B6823F0F0027B689B68604913438B
:104A90008B607B681B6803F00103002B4CD07B68A4
:104AA0005B68032B07D15A4B1B6803F00073002B84
:104AB00021D10123A6E07B685B68022B07D1544B10
:104AC0001B6803F40033002B15D101239AE07B68A7
:104AD0005B68002B07D14E4B1B6803F00203002BD1
:104AE00009D101238EE04A4B1B6803F48063002B3D
:104AF00001D1012386E0464B9B6823F003027B68CB
:104B00005B68434913438B60FDF76CFBF8600AE078
:104B1000FDF768FB0246FB68D31A41F288329342E4
:104B200001D903236EE03A4B9B6803F00C027B68CB
:104B30005B689B009A42EBD17B681B6803F0020321
:104B4000002B10D07B689A68314B9B6803F0F00310
:104B50009A4208D22E4B9B6823F0F0027B689B6838
:104B60002B4913438B60294B1B6803F007033A68FA
:104B70009A4210D2254B1B6823F0070223493B6859
:104B800013430B60214B1B6803F007033A689A42FA
:104B900001D0012336E07B681B6803F00403002B7F
:104BA00008D01B4B9B6823F4E0627B68DB681849E4
:104BB00013438B607B681B6803F00803002B09D04C
:104BC000134B9B6823F460527B681B69DB00104920
:104BD00013438B6000F024F802460D4B9B681B09C1
:104BE00003F00F030B49CB5C03F01F0322FA03F31E
:104BF000094A1360094B1B681846FDF7A3FA0346E0
:104C0000FB72FB7A18461037BD4680BD002002407B
:104C10000010024018A700083000002034000020D7
:104C200080B489B000AF0023FB610023BB613E4B21
:104C30009B6803F00C033B613B4BDB6803F0030311
:104C4000FB603B69002B05D03B690C2B21D1FB6835
:104C5000012B1ED1344B1B6803F00803002B07D136
:104C6000314BD3F894301B0A03F00F03FB6105E0CE
:104C70002D4B1B681B0903F00F03FB612B4AFB69DB
:104C800052F82330FB613B69002B0DD1FB69BB61FE
:104C90000AE03B69042B02D1254BBB6104E03B6970
:104CA000082B01D1234BBB613B690C2B34D11E4B2C
:104CB000DB6803F00303BB60BB68022B03D0BB6857
:104CC000032B03D005E01A4B7B6105E0194B7B6198
:104CD00002E0FB697B6100BF134BDB681B0903F03B
:104CE000070301337B60104BDB681B0A03F07F0373
:104CF0007A6903FB02F27B68B2FBF3F37B610A4B38
:104D0000DB685B0E03F0030301335B003B607A69F1
:104D10003B68B2FBF3F3BB61BB6918462437BD4661
:104D20005DF8047B704700BF0010024030A7000808
:104D30000024F40000127A0080B400AF034B1B681B
:104D40001846BD465DF8047B704700BF3000002068
:104D500080B500AFFFF7F0FF0246064B9B681B0AC9
:104D600003F007030449CB5C03F01F0322FA03F3AB
:104D7000184680BD0010024028A7000880B500AF8B
:104D8000FFF7DAFF0246064B9B68DB0A03F00703D6
:104D90000449CB5C03F01F0322FA03F3184680BDDD
:104DA0000010024028A7000880B586B000AF7860E8
:104DB00000233B612A4B9B6D03F08053002B03D0F3
:104DC000FFF7EEF9786114E0254B9B6D244A43F020
:104DD00080539365224B9B6D03F08053FB60FB680F
:104DE000FFF7DEF978611E4B9B6D1D4A23F080535F
:104DF00093657B69B3F5007F0BD17B68802B19D954
:104E00007B68A02B02D902233B6113E001233B61A5
:104E100010E07B68802B02D903233B610AE07B68AA
:104E2000802B02D102233B6104E07B68702B01D10F
:104E300001233B610B4B1B6823F0070209493B69C7
:104E400013430B60074B1B6803F007033A699A4250
:104E500001D0012300E0002318461837BD4680BD6D
:104E6000001002400020024080B586B000AF78609C
:104E70000023FB740023BB747B681B6803F400638E
:104E8000002B41D07B685B6EB3F5400F2AD0B3F5A1
:104E9000400F24D8B3F5000F08D0B3F5000F1ED88B
:104EA000002B0AD0B3F5800F10D018E0864BDB68DA
:104EB000854A43F48033D36015E07B6804330021D6
:104EC000184600F0BBFA0346FB740CE07B68203305
:104ED0000021184600F0A6FB0346FB7403E0012303
:104EE000FB7400E000BFFB7C002B0BD1764BD3F8AA
:104EF000883023F440027B685B6E73491343C1F82A
:104F0000883001E0FB7CBB747B681B6803F4805332
:104F1000002B41D07B689B6EB3F1407F2AD0B3F168
:104F2000407F24D8B3F1007F08D0B3F1007F1ED8B2
:104F3000002B0AD0B3F1807F10D018E0624BDB6801
:104F4000614A43F48033D36015E07B680433002169
:104F5000184600F073FA0346FB740CE07B682033BC
:104F60000021184600F05EFB0346FB7403E00123BA
:104F7000FB7400E000BFFB7C002B0BD1524BD3F83D
:104F8000883023F040727B689B6E4F491343C1F811
:104F9000883001E0FB7CBB747B681B6803F4003342
:104FA000002B00F0A08000237B74474B9B6D03F027
:104FB0008053002B01D1012300E00023002B0DD0F2
:104FC000414B9B6D404A43F0805393653E4B9B6D34
:104FD00003F08053BB60BB6801237B743B4B1B68B1
:104FE0003A4A43F480731360FDF7FCF8F86009E077
:104FF000FDF7F8F80246FB68D31A022B02D9032307
:10500000FB7405E0314B1B6803F48073002BEFD079
:10501000FB7C002B5CD12C4BD3F8903003F4407315
:105020007B617B69002B1FD07B68D3F884307A6961
:105030009A4219D0244BD3F8903023F440737B610B
:10504000214BD3F89030204A43F48033C2F890309B
:105050001D4BD3F890301C4A23F48033C2F89030B3
:10506000194A7B69C2F890307B6903F00103002B79
:1050700016D0FDF7B7F8F8600BE0FDF7B3F802467D
:10508000FB68D31A41F28832934202D90323FB749E
:1050900006E00D4BD3F8903003F00203002BECD068
:1050A000FB7C002B0CD1084BD3F8903023F44072DA
:1050B0007B68D3F8843004491343C1F8903009E089
:1050C000FB7CBB7406E000BF001002400070004093
:1050D000FB7CBB747B7C012B05D19E4B9B6D9D4A59
:1050E00023F0805393657B681B6803F00103002B5A
:1050F0000AD0984BD3F8883023F003027B689B6B6F
:1051000094491343C1F888307B681B6803F002039D
:10511000002B0AD08F4BD3F8883023F00C027B6829
:10512000DB6B8C491343C1F888307B681B6803F044
:105130000403002B0AD0874BD3F8883023F03002C9
:105140007B681B6C83491343C1F888307B681B68FC
:1051500003F00803002B0AD07E4BD3F8883023F0ED
:10516000C0027B685B6C7B491343C1F888307B6865
:105170001B6803F01003002B0AD0764BD3F888305D
:1051800023F440727B689B6C72491343C1F88830EA
:105190007B681B6803F02003002B0AD06D4BD3F80B
:1051A000883023F440627B68DB6C6A491343C1F8A2
:1051B00088307B681B6803F40073002B0AD0654BB2
:1051C000D3F8883023F440227B68DB6D61491343B8
:1051D000C1F888307B681B6803F48063002B0AD019
:1051E0005C4BD3F8883023F440127B681B6E59491E
:1051F0001343C1F888307B681B6803F04003002B21
:105200000AD0544BD3F8883023F440527B681B6D8E
:1052100050491343C1F888307B681B6803F0800352
:10522000002B0AD04B4BD3F8883023F440427B68E4
:105230005B6D48491343C1F888307B681B6803F4F1
:105240008073002B0AD0434BD3F8883023F44032CC
:105250007B689B6D3F491343C1F888307B681B68AE
:1052600003F40053002B28D03A4BD3F8883023F0B6
:1052700040627B68DB6E37491343C1F888307B6836
:10528000DB6EB3F1006F06D1324BDB68314A43F479
:105290008013D36011E07B68DB6EB3F1806F0CD1BB
:1052A0007B6804330121184600F0C8F80346FB74FC
:1052B000FB7C002B01D0FB7CBB747B681B6803F478
:1052C0000023002B28D0234BD3F8883023F04062F2
:1052D0007B681B6F1F491343C1F888307B681B6FC5
:1052E000B3F1006F06D11B4BDB681A4A43F48013FD
:1052F000D36011E07B681B6FB3F1806F0CD17B68CA
:1053000004330121184600F099F80346FB74FB7C36
:10531000002B01D0FB7CBB747B681B6803F48023EB
:10532000002B2BD00B4BD3F8883023F040627B68E6
:105330005B6F08491343C1F888307B685B6FB3F13A
:10534000006F09D1034BDB68024A43F48013D3603A
:1053500014E000BF001002407B685B6FB3F1806F08
:105360000CD17B6804330121184600F067F803462E
:10537000FB74FB7C002B01D0FB7CBB747B681B683F
:1053800003F48043002B2FD02B4BD3F8883023F02D
:1053900040527B689B6F28491343C1F888307B6873
:1053A0009B6FB3F1805F0DD17B68043302211846F7
:1053B00000F044F80346FB74FB7C002B14D0FB7C0C
:1053C000BB7411E07B689B6FB3F1005F0CD17B680D
:1053D00020330221184600F025F90346FB74FB7CBC
:1053E000002B01D0FB7CBB747B681B6803F400437B
:1053F000002B0AD0104BD3F8883023F080427B6812
:10540000DB6F0D491343C1F888307B681B6803F4D8
:105410008033002B0BD0084BD3F8883023F00042A8
:105420007B68D3F8803004491343C1F88830BB7CD3
:1054300018461837BD4680BD0010024080B584B0C4
:1054400000AF786039600023FB73754BDB6803F0B5
:105450000303002B18D0724BDB6803F003027B6858
:105460001B689A420DD17B681B68002B09D06C4BDE
:10547000DB681B0903F007035A1C7B685B689A42D0
:1054800047D00123FB7344E07B681B68032B18D0D3
:10549000032B25D8012B02D0022B09D020E0604B32
:1054A0001B6803F00203002B1DD10123FB731AE0DC
:1054B0005B4B1B6803F48063002B16D10123FB7345
:1054C00013E0574B1B6803F40033002B0FD1544BF0
:1054D0001B6803F48023002B09D10123FB7306E032
:1054E0000123FB7304E000BF02E000BF00E000BF47
:1054F000FB7B002B0DD14A4BDB6823F073027B68EA
:1055000019687B685B68013B1B010B4344491343EB
:10551000CB60FB7B002B7DD1414B1B68404A23F0C5
:1055200080631360FCF75EFEB86009E0FCF75AFE8A
:105530000246BB68D31A022B02D90323FB7305E092
:10554000374B1B6803F00063002BEFD1FB7B002B74
:1055500060D13B68002B11D1314B1B6923F41F3301
:1055600023F440737A68926811027A68D26812094B
:1055700052040A432A4913430B6127E03B68012B7D
:1055800012D1274B1B6923F4C00323F4FE437A682E
:10559000926811027A6812695208013A52050A4368
:1055A0001F4913430B6111E01D4B1B6923F0C063BE
:1055B00023F4FE437A68926811027A6852695208AD
:1055C000013A52060A43164913430B61144B1B68F8
:1055D000134A43F080631360FCF704FEB86009E0EF
:1055E000FCF700FE0246BB68D31A022B02D9032344
:1055F000FB7305E00A4B1B6803F00063002BEFD040
:10560000FB7B002B06D1064B1A697B689B6904491A
:1056100013430B61FB7B18461037BD4680BD00BFAE
:105620000010024080B584B000AF7860396000237C
:10563000FB736A4BDB6803F00303002B18D0674B46
:10564000DB6803F003027B681B689A420DD17B681C
:105650001B68002B09D0614BDB681B0903F00703B3
:105660005A1C7B685B689A4247D00123FB7344E075
:105670007B681B68032B18D0032B25D8012B02D085
:10568000022B09D020E0554B1B6803F00203002BCE
:105690001DD10123FB731AE0504B1B6803F4806398
:1056A000002B16D10123FB7313E04C4B1B6803F452
:1056B0000033002B0FD1494B1B6803F48023002BD0
:1056C00009D10123FB7306E00123FB7304E000BF53
:1056D00002E000BF00E000BFFB7B002B0DD13F4B81
:1056E000DB6823F073027B6819687B685B68013BA9
:1056F0001B010B4339491343CB60FB7B002B67D164
:10570000364B1B68354A23F080531360FCF76AFD63
:10571000B86009E0FCF766FD0246BB68D31A022BAD
:1057200002D90323FB7305E02C4B1B6803F00053E5
:10573000002BEFD1FB7B002B4AD13B68002B11D112
:10574000264B5B6923F41F3323F440737A68926815
:1057500011027A68D268120952040A431F4913439E
:105760004B6111E01D4B5B6923F0C06323F4FE43E2
:105770007A68926811027A6812695208013A5206F0
:105780000A43164913434B61144B1B68134A43F0F9
:1057900080531360FCF726FDB86009E0FCF722FD9A
:1057A0000246BB68D31A022B02D90323FB7305E020
:1057B0000A4B1B6803F00053002BEFD0FB7B002B40
:1057C00006D1064B5A697B685B69044913434B61F8
:1057D000FB7B18461037BD4680BD00BF001002405D
:1057E00080B582B000AF78607B68002B01D10123C7
:1057F00049E07B6893F83D30DBB2002B06D17B6833
:10580000002283F83C207868FCF778FA7B68022253
:1058100083F83D207B681A687B680433194610467C
:1058200000F038FA7B68012283F848207B68012267
:1058300083F83E207B68012283F83F207B680122A9
:1058400083F840207B68012283F841207B68012295
:1058500083F842207B68012283F843207B68012281
:1058600083F844207B68012283F845207B6801226D
:1058700083F846207B68012283F847207B68012259
:1058800083F83D20002318460837BD4680BD80B50B
:1058900084B000AF78607B681B68DB68FB607B6866
:1058A0001B681B69BB60BB6803F00203002B20D0A0
:1058B000FB6803F00203002B1BD07B681B686FF0B2
:1058C00002021A617B6801221A777B681B689B6958
:1058D00003F00303002B03D0786800F0BCF905E067
:1058E000786800F0AEF9786800F0BFF97B680022B4
:1058F0001A77BB6803F00403002B20D0FB6803F089
:105900000403002B1BD07B681B686FF004021A6134
:105910007B6802221A777B681B689B6903F44073DB
:10592000002B03D0786800F096F905E0786800F065
:1059300088F9786800F099F97B6800221A77BB68CB
:1059400003F00803002B20D0FB6803F00803002BB2
:105950001BD07B681B686FF008021A617B68042209
:105960001A777B681B68DB6903F00303002B03D005
:10597000786800F070F905E0786800F062F97868FE
:1059800000F073F97B6800221A77BB6803F01003FC
:10599000002B20D0FB6803F01003002B1BD07B688A
:1059A0001B686FF010021A617B6808221A777B6807
:1059B0001B68DB6903F44073002B03D0786800F0A8
:1059C0004AF905E0786800F03CF9786800F04DF994
:1059D0007B6800221A77BB6803F00103002B0CD010
:1059E000FB6803F00103002B07D07B681B686FF096
:1059F00001021A61786800F01AF9BB6803F08003AD
:105A0000002B04D1BB6803F40053002B0CD0FB68BF
:105A100003F08003002B07D07B681B686FF40252F1
:105A20001A61786800F008FBBB6803F48073002BF0
:105A30000CD0FB6803F08003002B07D07B681B6849
:105A40006FF480721A61786800F000FBBB6803F0A5
:105A50004003002B0CD0FB6803F04003002B07D061
:105A60007B681B686FF040021A61786800F007F9E4
:105A7000BB6803F02003002B0CD0FB6803F020036D
:105A8000002B07D07B681B686FF020021A617868D2
:105A900000F0C8FA00BF1037BD4680BD80B584B0A5
:105AA00000AF786039600023FB737B6893F83C306B
:105AB000012B01D10223B6E07B68012283F83C2050
:105AC0007B68022283F83D207B681B689B68BB6073
:105AD000BB6823F4803323F07703BB60BB6823F4F7
