:020000040800F2
:1000000000800120511300082D110008351100084F
:100010003D110008451100084D11000800000000C6
:100020000000000000000000000000005511000862
:100030006311000800000000711100087F11000822
:10004000A1130008A1130008A1130008A1130008C0
:10005000A1130008A1130008A1130008A1130008B0
:10006000A1130008A1130008A1130008A1130008A0
:10007000A1130008A1130008A1130008A113000890
:10008000A1130008A1130008A1130008A113000880
:10009000A1130008A1130008A1130008A113000870
:1000A000A11300088D110008A1130008A113000876
:1000B000A1130008A1130008A1130008A113000850
:1000C000A1130008A1130008A1130008A113000840
:1000D000A1130008A1130008A1130008A113000830
:1000E000A1130008A1130008A1130008A113000820
:1000F000A1130008A1130008A1130008A113000810
:10010000A1130008A1130008A1130008A1130008FF
:10011000A1130008A1130008A1130008A1130008EF
:10012000A1130008A1130008A1130008A1130008DF
:10013000A1130008A1130008A1130008A1130008CF
:10014000A1130008A1130008A1130008A1130008BF
:10015000A1130008A1130008A1130008A1130008AF
:10016000A1130008A1130008A1130008A11300089F
:10017000A1130008A1130008A1130008000000004B
:08018000A1130008A1130008FF
:1001900010B5054C237833B9044B13B10448AFF3C1
:1001A00000800123237010BDD80100200000000052
:1001B0005066000808B5034B1BB103490348AFF371
:1001C000008008BD00000000DC010020506600082F
:1001D00001F0FF01102A2BDB10F0070F08D010F8F8
:1001E000013B013A8B422DD010F0070F42B3F6D1FC
:1001F000F0B441EA012141EA014122F007047FF015
:1002000000070023F0E80256083C85EA010586EA6B
:10021000010685FA47F5A3FA87F586FA47F6A5FAA7
:1002200087F68EB9EED1F0BC01F0FF0102F00702B3
:1002300032B110F8013B013A83EA010313B1F8D15E
:100240000020704701387047002D06BF354603383F
:10025000073815F0010F07D1013015F4807F02BF78
:10026000013015F4C03F0130F0BC0138704700BFC9
:10027000034613F8012B002AFBD1181A01387047E6
:1002800081F0004102E000BF83F0004330B54FEA47
:1002900041044FEA430594EA050F08BF90EA020FB4
:1002A0001FBF54EA000C55EA020C7FEA645C7FEA47
:1002B000655C00F0E2804FEA5454D4EB5555B8BF6A
:1002C0006D420CDD2C4480EA020281EA030382EADB
:1002D000000083EA010180EA020281EA0303362D6D
:1002E00088BF30BD11F0004F4FEA01314FF4801C40
:1002F0004CEA113102D0404261EB410113F0004F52
:100300004FEA03334CEA133302D0524263EB430308
:1003100094EA050F00F0A780A4F10104D5F1200EA6
:100320000DDB02FA0EFC22FA05F2801841F1000101
:1003300003FA0EF2801843FA05F359410EE0A5F1D5
:1003400020050EF1200E012A03FA0EFC28BF4CF006
:10035000020C43FA05F3C01851EBE37101F00045BC
:1003600007D54FF0000EDCF1000C7EEB00006EEBC9
:100370000101B1F5801F1BD3B1F5001F0CD3490853
:100380005FEA30004FEA3C0C04F101044FEA4452AA
:1003900012F5800F80F09A80BCF1004F08BF5FEA31
:1003A000500C50F1000041EB045141EA050130BD11
:1003B0005FEA4C0C404141EB0101013C28BFB1F523
:1003C000801FE9D291F0000F04BF01460020B1FA6E
:1003D00081F308BF2033A3F10B03B3F120020CDA41
:1003E0000C3208DD02F1140CC2F10C0201FA0CF01F
:1003F00021FA02F10CE002F11402D8BFC2F1200C84
:1004000001FA02F120FA0CFCDCBF41EA0C01904039
:10041000E41AA2BF01EB0451294330BD6FEA040482
:100420001F3C1CDA0C340EDC04F11404C4F120026D
:1004300020FA04F001FA02F340EA030021FA04F37F
:1004400045EA030130BDC4F10C04C4F1200220FAD6
:1004500002F001FA04F340EA0300294630BD21FA14
:1004600004F0294630BD94F0000F83F4801306BFDA
:1004700081F480110134013D4EE77FEA645C18BFCE
:100480007FEA655C29D094EA050F08BF90EA020F65
:1004900005D054EA000C04BF1946104630BD91EA5D
:1004A000030F1EBF0021002030BD5FEA545C05D160
:1004B0004000494128BF41F0004130BD14F580049F
:1004C0003CBF01F5801130BD01F0004545F0FE4113
:1004D00041F470014FF0000030BD7FEA645C1ABF48
:1004E000194610467FEA655C1CBF0B46024650EA7F
:1004F000013406BF52EA033591EA030F41F40021AB
:1005000030BD00BF90F0000F04BF0021704730B530
:100510004FF4806404F132044FF000054FF0000105
:1005200050E700BF90F0000F04BF0021704730B5C6
:100530004FF4806404F1320410F0004548BF40429B
:100540004FF000013EE700BF42004FEAE2014FEAF0
:1005500031014FEA02701FBF12F07F4393F07F4FCB
:1005600081F06051704732F07F4208BF704793F0CE
:100570007F4F04BF41F40021704730B54FF46074E1
:1005800001F0004521F000411CE700BF50EA0102E4
:1005900008BF704730B54FF000050AE050EA01028D
:1005A00008BF704730B511F0004502D5404261EBFD
:1005B00041014FF4806404F132045FEA915C3FF43E
:1005C000D8AE4FF003025FEADC0C18BF03325FEADB
:1005D000DC0C18BF033202EBDC02C2F1200300FA8C
:1005E00003FC20FA02F001FA03FE40EA0E0021FAB1
:1005F00002F11444BDE600BF70B54FF0FF0C4CF49F
:10060000E06C1CEA11541DBF1CEA135594EA0C0F50
:1006100095EA0C0F00F0DEF82C4481EA030621EA8B
:100620004C5123EA4C5350EA013518BF52EA0335C6
:1006300041F4801143F4801338D0A0FB02CE4FF078
:100640000005E1FB02E506F00042E0FB03E54FF0A8
:100650000006E1FB03569CF0000F18BF4EF0010EA0
:10066000A4F1FF04B6F5007F64F5407404D25FEA9C
:100670004E0E6D4146EB060642EAC62141EA55514F
:100680004FEAC52040EA5E504FEACE2EB4F1FD0C91
:1006900088BFBCF5E06F1ED8BEF1004F08BF5FEA0F
:1006A000500E50F1000041EB045170BD06F00046C1
:1006B00046EA010140EA020081EA0301B4EB5C046E
:1006C000C2BFD4EB0C0541EA045170BD41F4801166
:1006D0004FF0000E013C00F3AB8014F1360FDEBF8B
:1006E000002001F0004170BDC4F10004203C35DA67
:1006F0000C341BDC04F11404C4F1200500FA05F3EA
:1007000020FA04F001FA05F240EA020001F000428A
:1007100021F0004110EBD37021FA04F642EB060100
:100720005EEA430E08BF20EAD37070BDC4F10C042A
:10073000C4F1200500FA04F320FA05F001FA04F2EE
:1007400040EA020001F0004110EBD37041F10001DA
:100750005EEA430E08BF20EAD37070BDC4F12005E5
:1007600000FA05F24EEA020E20FA04F301FA05F24D
:1007700043EA020321FA04F001F0004121FA04F2F5
:1007800020EA020000EBD3705EEA430E08BF20EAC5
:10079000D37070BD94F0000F0FD101F000464000FF
:1007A00041EB010111F4801F08BF013CF7D041EA81
:1007B000060195F0000F18BF704703F00046520085
:1007C00043EB030313F4801F08BF013DF7D043EA56
:1007D0000603704794EA0C0F0CEA135518BF95EA0C
:1007E0000C0F0CD050EA410618BF52EA4306D1D193
:1007F00081EA030101F000414FF0000070BD50EAB2
:10080000410606BF1046194652EA430619D094EA3B
:100810000C0F02D150EA013613D195EA0C0F05D125
:1008200052EA03361CBF104619460AD181EA030179
:1008300001F0004141F0FE4141F470014FF0000031
:1008400070BD41F0FE4141F4780170BD70B54FF0CC
:10085000FF0C4CF4E06C1CEA11541DBF1CEA13554C
:1008600094EA0C0F95EA0C0F00F0A7F8A4EB05042E
:1008700081EA030E52EA03354FEA013100F0888025
:100880004FEA03334FF0805545EA131343EA1263EE
:100890004FEA022245EA111545EA10654FEA0026A3
:1008A0000EF000419D4208BF964244F1FD0404F55C
:1008B000407402D25B084FEA3202B61A65EB0305B8
:1008C0005B084FEA32024FF480104FF4002CB6EB75
:1008D000020E75EB030E22BFB61A754640EA0C00F5
:1008E0005B084FEA3202B6EB020E75EB030E22BF35
:1008F000B61A754640EA5C005B084FEA3202B6EB76
:10090000020E75EB030E22BFB61A754640EA9C0034
:100910005B084FEA3202B6EB020E75EB030E22BF04
:10092000B61A754640EADC0055EA060E18D04FEAC2
:10093000051545EA16754FEA06164FEAC30343EA62
:1009400052734FEAC2025FEA1C1CC0D111F4801F2F
:100950000BD141EA00014FF000004FF0004CB6E728
:1009600011F4801F04BF01430020B4F1FD0C88BFC7
:10097000BCF5E06F3FF6AFAEB5EB030C04BFB6EBD2
:10098000020C5FEA500C50F1000041EB045170BDC5
:100990000EF0004E4EEA113114EB5C04C2BFD4EBF2
:1009A0000C0541EA045170BD41F480114FF0000E76
:1009B000013C90E645EA060E8DE60CEA135594EAF2
:1009C0000C0F08BF95EA0C0F3FF43BAF94EA0C0FF5
:1009D0000AD150EA01347FF434AF95EA0C0F7FF46A
:1009E00025AF104619462CE795EA0C0F06D152EABE
:1009F00003353FF4FDAE1046194622E750EA4106A2
:100A000018BF52EA43067FF4C5AE50EA41047FF4B2
:100A10000DAF52EA43057FF4EBAE12E74FF0FF3C17
:100A200006E000BF4FF0010C02E000BF4FF0010CE8
:100A30004DF804CD4FEA410C7FEA6C5C4FEA430C61
:100A400018BF7FEA6C5C1BD001B050EA410C0CBFB0
:100A500052EA430C91EA030F02BF90EA020F002012
:100A6000704710F1000F91EA030F58BF994208BF79
:100A700090422CBFD8176FEAE37040F00100704736
:100A80004FEA410C7FEA6C5C02D150EA013C07D18D
:100A90004FEA430C7FEA6C5CD6D152EA033CD3D0D8
:100AA0005DF8040B704700BF8446104662468C46D2
:100AB0001946634600E000BF01B5FFF7B7FF002805
:100AC00048BF10F1000F01BD4DF808EDFFF7F4FF2E
:100AD0000CBF012000205DF808FB00BF4DF808EDB9
:100AE000FFF7EAFF34BF012000205DF808FB00BFDC
:100AF0004DF808EDFFF7E0FF94BF012000205DF8FE
:100B000008FB00BF4DF808EDFFF7CEFF94BF0120B2
:100B100000205DF808FB00BF4DF808EDFFF7C4FFAB
:100B200034BF012000205DF808FB00BF4FEA410CF4
:100B30007FEA6C5C02D150EA013C0AD14FEA430CD7
:100B40007FEA6C5C02D152EA033C02D14FF0000014
:100B500070474FF0010070474FEA410212F5001252
:100B600015D211D56FF47873B3EB625212D94FEAF4
:100B7000C12343F0004343EA505311F0004F23FADE
:100B800002F018BF404270474FF00000704750EA33
:100B9000013005D111F0004008BF6FF000407047F0
:100BA0004FF00000704700BF80B582B000AF7860A2
:100BB0007B681B68594A934240F0AC80584B1B78C5
:100BC000002B24D0574B1B88002B20D1564B1B7871
:100BD000012B1CD1554B1B6800225A63042153483A
:100BE00001F066FE0421514802F0B2FE4F4B1B6833
:100BF0005A6C4E4B1B6842F400425A644A4B022224
:100C00001A704B4B01221A70454B00221A70464B4A
:100C10001B78012B3FD1474B93F900309AB2414BDF
:100C20001B8813449AB23F4B1A803E4B1B8841F2FB
:100C30008632934207D93B4B41F287321A803D4BB3
:100C4000FF221A7066E0374B1B88002B1DD1354BF5
:100C500000221A80374B01221A70344B1B68002285
:100C60005A630421314801F023FE04212F4802F089
:100C70006FFE2D4B02221A702C4B1B685A6C2B4BAB
:100C80001B6842F400425A6444E0264B1A88274B02
:100C90001B685A633EE0264B93F900309AB2264B0C
:100CA0001B8813449AB2244B1A80234B1B8841F2B1
:100CB0008632934207D9204B41F287321A801C4B6F
:100CC000FF221A7026E01C4B1B88002B1DD11A4BEB
:100CD00000221A80164B01221A70144B1B68002246
:100CE0009A630021114801F0E3FD00210F4802F052
:100CF0002FFE0D4B01221A700C4B1B685A6C0B4BCC
:100D00001B6842F400425A6404E00B4B1A88074BFC
:100D10001B689A6300BF0837BD4680BD002C0140A8
:100D2000000000204002002001000020F40100200B
:100D300002000020030000204202002080B500AF26
:100D400000F02FFB00F01CF800F026F900F06AF824
:100D50000A4B1B685A6C094B1B6842F400425A64E8
:100D60000021064801F0A4FD0021044802F0F0FD36
:100D7000024801F0CBFC00BFFDE700BFF4010020FA
:100D800080B596B000AF07F1140344220021184645
:100D900003F03DFD3B4600221A605A609A60DA601B
:100DA0001A614FF4007000F03BFE0346002B01D0A7
:100DB00000F016F910237B610123FB6200233B63E3
:100DC00060237B630223FB6301233B6401237B6479
:100DD0001923BB640723FB6402233B6502237B6565
:100DE00007F11403184600F071FE0346002B01D0F2
:100DF00000F0F6F80F233B6003237B600023BB6009
:100E00000023FB6000233B613B460321184601F0B1
:100E100039FA0346002B01D000F0E2F800BF583742
:100E2000BD4680BD80B59AB000AF07F158030022DF
:100E30001A605A609A60DA6007F14C0300221A6067
:100E40005A609A6007F1300300221A605A609A6073
:100E5000DA601A615A619A613B1D2C220021184602
:100E600003F0D5FC4A4B4B4A1A60494B00225A60AA
:100E7000474B00229A60464B41F28732DA60444B7E
:100E800000221A61424B00225A61414B00229A61B2
:100E90003F4801F0E3FB0346002B01D000F0A0F82F
:100EA0004FF48053BB6507F158031946384802F0E8
:100EB00021F80346002B01D000F092F8344801F0ED
:100EC00095FC0346002B01D000F08AF82023FB6438
:100ED0004FF400133B6500237B6507F14C03194673
:100EE0002B4802F0EFFD0346002B01D000F078F80C
:100EF00060233B6300237B630023BB630023FB630E
:100F000000233B6400237B640023BB6407F13003B0
:100F1000002219461E4801F0D9FE0346002B01D0DD
:100F200000F05EF807F1300304221946184801F07A
:100F3000CDFE0346002B01D000F052F800237B6069
:100F40000023BB600023FB6032233B6100237B61F5
:100F50004FF40053BB610023FB6100233B624FF061
:100F600000737B620023BB620023FB623B1D1946BA
:100F7000074802F02FFE0346002B01D000F030F8A6
:100F8000034800F07DF800BF6837BD4680BD00BF54
:100F9000F4010020002C014080B483B000AF0F4B5F
:100FA000DB6C0E4A43F00103D3640C4BDB6C03F0A3
:100FB00001037B607B68094BDB6C084A43F002034A
:100FC000D364064BDB6C03F002033B603B6800BF5D
:100FD0000C37BD465DF8047B704700BF001002402F
:100FE00080B400AF72B600BF00BFFDE780B483B02D
:100FF00000AF0F4B1B6E0E4A43F0010313660C4B00
:101000001B6E03F001037B607B68094B9B6D084AF4
:1010100043F080539365064B9B6D03F080533B6018
:101020003B6800BF0C37BD465DF8047B704700BFCE
:101030000010024080B584B000AF78607B681B6808
:101040000D4A934213D10D4B1B6E0C4A43F40063BF
:1010500013660A4B1B6E03F40063FB60FB680022FF
:101060000021192000F0EDFA192000F006FB00BF66
:101070001037BD4680BD00BF002C0140001002406B
:1010800080B58AB000AF786007F1140300221A60BF
:101090005A609A60DA601A617B681B68204A934242
:1010A00039D1204BDB6C1F4A43F00103D3641D4B45
:1010B000DB6C03F001033B613B691A4BDB6C194AA3
:1010C00043F00203D364174BDB6C03F00203FB60B5
:1010D000FB684FF460737B610223BB610023FB61FB
:1010E00000233B6201237B6207F1140319464FF092
:1010F000904000F0DDFA01237B610223BB610023F5
:10110000FB6100233B6201237B6207F11403194654
:10111000054800F0CDFA00BF2837BD4680BD00BFAE
:10112000002C0140001002400004004880B400AFD1
:1011300000BFFDE780B400AF00BFFDE780B400AFA3
:1011400000BFFDE780B400AF00BFFDE780B400AF93
:1011500000BFFDE780B400AF00BFBD465DF8047B73
:10116000704780B400AF00BFBD465DF8047B704798
:1011700080B400AF00BFBD465DF8047B704780B50A
:1011800000AF00F063F900BF80BD000080B500AF84
:10119000024801F093FC00BF80BD00BFF4010020B5
:1011A00080B400AF01231846BD465DF8047B70474C
:1011B00080B582B000AF7860396003F07BFB0346F6
:1011C00016221A604FF0FF3318460837BD4680BD1F
:1011D00080B582B000AF78604FF0FF317868FFF7DC
:1011E000E7FF00BFFDE780B586B000AFF860B960EB
:1011F0007A6000237B610AE0AFF300800146BB68A0
:101200005A1CBA60CAB21A707B6901337B617A6971
:101210007B689A42F0DB7B6818461837BD4680BD74
:1012200080B586B000AFF860B9607A6000237B615A
:1012300009E0BB685A1CBA601B781846AFF30080FF
:101240007B6901337B617A697B689A42F1DB7B6859
:1012500018461837BD4680BD80B483B000AF7860B3
:101260004FF0FF3318460C37BD465DF8047B7047DE
:1012700080B483B000AF786039603B684FF40052AF
:101280005A60002318460C37BD465DF8047B704752
:1012900080B483B000AF7860012318460C37BD4698
:1012A0005DF8047B704780B485B000AFF860B9602A
:1012B0007A60002318461437BD465DF8047B7047FA
:1012C00080B586B000AF7860144A154BD31A7B61A5
:1012D0007B693B61134B1B68002B02D1114B124AF7
:1012E0001A60104B1A687B6813443A699A4207D215
:1012F00003F0E0FA03460C221A604FF0FF3309E0D6
:10130000084B1B68FB60074B1A687B681344054A4F
:101310001360FB6818461837BD4680BD0080012069
:1013200000040000440200209803002080B400AFB5
:10133000064BD3F88830054A43F47003C2F888306E
:1013400000BFBD465DF8047B704700BF00ED00E0C4
:10135000DFF834D0FFF7EAFF0C480D490D4A0023AF
:1013600002E0D458C4500433C4188C42F9D30A4A5A
:101370000A4C002301E013600432A242FBD303F0C5
:101380009FFAFFF7DBFCFEE7008001200000002051
:10139000D8010020286A0008D80100209803002006
:1013A000FEE780B582B000AF0023FB71032000F0A0
:1013B0003DF9002000F00EF80346002B02D0012377
:1013C000FB7101E0FFF712FEFB7918460837BD46B6
:1013D00080BD000080B584B000AF78600023FB734F
:1013E000174B1B78002B23D0164B1A68144B1B7815
:1013F00019464FF47A73B3FBF1F3B2FBF3F31846DB
:1014000000F049F90346002B0FD17B680F2B09D858
:10141000002279684FF0FF3000F013F90A4A7B6828
:10142000136007E00123FB7304E00123FB7301E079
:101430000123FB73FB7B18461037BD4680BD00BF00
:101440000C000020040000200800002080B400AF41
:10145000064B1B781A46064B1B681344044A13605C
:1014600000BFBD465DF8047B704700BF0C00002044
:101470004802002080B400AF034B1B681846BD46ED
:101480005DF8047B704700BF4802002080B485B03F
:1014900000AF78607B6803F00703FB600C4BDB68F0
:1014A000BB60BA684FF6FF031340BB60FB681A02CB
:1014B000BB68134343F0BF6343F40033BB60044A8B
:1014C000BB68D36000BF1437BD465DF8047B70472E
:1014D00000ED00E080B400AF044BDB681B0A03F0B2
:1014E00007031846BD465DF8047B704700ED00E039
:1014F00080B483B000AF0346FB7197F90730002B2F
:101500000BDBFB7903F01F02074997F907305B09F2
:10151000012000FA02F241F8232000BF0C37BD463B
:101520005DF8047B704700BF00E100E080B483B049
:1015300000AF03463960FB7197F90730002B0ADBD7
:101540003B68DAB20C4997F907301201D2B20B446A
:1015500083F800230AE03B68DAB20849FB7903F01C
:101560000F03043B1201D2B20B441A7600BF0C37B2
:10157000BD465DF8047B704700E100E000ED00E04F
:1015800080B489B000AFF860B9607A60FB6803F09E
:101590000703FB61FB69C3F10703042B28BF042386
:1015A000BB61FB690433062B02D9FB69033B00E0F6
:1015B00000237B614FF0FF32BB6902FA03F3DA4389
:1015C000BB681A407B699A404FF0FF317B6901FA92
:1015D00003F3D9437B680B40134318462437BD46B9
:1015E0005DF8047B7047000080B582B000AF786082
:1015F0007B68013BB3F1807F01D301230FE00A4AEE
:101600007B68013B53600F214FF0FF30FFF78EFFE7
:10161000054B00229A60044B07221A6000231846EB
:101620000837BD4680BD00BF10E000E080B582B045
:1016300000AF78607868FFF729FF00BF0837BD4624
:1016400080BD80B586B000AF0346B9607A60FB7399
:1016500000237B61FFF73EFF78617A68B96878699B
:10166000FFF78EFF024697F90F3011461846FFF735
:101670005DFF00BF1837BD4680BD80B582B000AFAA
:101680000346FB7197F907301846FFF731FF00BF9B
:101690000837BD4680BD80B582B000AF78607868FD
:1016A000FFF7A2FF034618460837BD4680BD00007D
:1016B00080B487B000AF7860396000237B617FE140
:1016C0003B681A6801217B6901FA03F31340FB6050
:1016D000FB68002B00F071813B685B6803F003033B
:1016E000012B05D03B685B6803F00303022B30D16C
:1016F0007B689B683B617B695B00032202FA03F312
:10170000DB433A6913403B613B68DA687B695B0005
:1017100002FA03F33A6913433B617B683A699A60C2
:101720007B685B683B6101227B6902FA03F3DB4360
:101730003A6913403B613B685B681B0903F0010297
:101740007B6902FA03F33A6913433B617B683A69A8
:101750005A603B685B6803F00303032B18D17B6876
:10176000DB6A3B6101227B6902FA03F3DB433A69DE
:1017700013403B613B685B68DB0803F001027B6957
:1017800002FA03F33A6913433B617B683A69DA6210
:101790003B685B6803F00303032B17D07B68DB68AF
:1017A0003B617B695B00032202FA03F3DB433A6986
:1017B00013403B613B689A687B695B0002FA03F364
:1017C0003A6913433B617B683A69DA603B685B685E
:1017D00003F00303022B23D17B69DA087B6808320C
:1017E00053F822303B617B6903F007039B000F2213
:1017F00002FA03F3DB433A6913403B613B681A6921
:101800007B6903F007039B0002FA03F33A69134371
:101810003B617B69DA087B680832396943F822103A
:101820007B681B683B617B695B00032202FA03F360
:10183000DB433A6913403B613B685B6803F003029A
:101840007B695B0002FA03F33A6913433B617B68EF
:101850003A691A603B685B6803F44033002B00F080
:10186000AC805F4B1B6E5E4A43F0010313665C4B1A
:101870001B6E03F00103BB60BB685A4A7B699B087F
:10188000023352F823303B617B6903F003039B0072
:101890000F2202FA03F3DB433A6913403B617B6892
:1018A000B3F1904F25D07B684F4A93421FD07B689D
:1018B0004E4A934219D07B684D4A934213D07B68BD
:1018C0004C4A93420DD07B684B4A934207D07B68C9
:1018D0004A4A934201D106230CE007230AE005237C
:1018E00008E0042306E0032304E0022302E00123CE
:1018F00000E000237A6902F00302920093403A6903
:1019000013433B6137497B699B0802333A6941F8CD
:1019100023203B4B9B683B61FB68DB433A691340E8
:101920003B613B685B6803F48013002B03D03A698A
:10193000FB6813433B61324A3B699360304BDB6881
:101940003B61FB68DB433A6913403B613B685B6882
:1019500003F40013002B03D03A69FB6813433B6187
:10196000274A3B69D360264B5B683B61FB68DB43DE
:101970003A6913403B613B685B6803F40033002B1A
:1019800003D03A69FB6813433B611D4A3B695360CE
:101990001B4B1B683B61FB68DB433A6913403B61AF
:1019A0003B685B6803F48033002B03D03A69FB6823
:1019B00013433B61124A3B6913607B6901337B61CE
:1019C0003B681A687B6922FA03F3002B7FF478AE38
:1019D00000BF00BF1C37BD465DF8047B704700BFE9
:1019E00000100240000001400004004800080048C8
:1019F000000C00480010004800140048001800487F
:101A00000004014080B400AF044B1B6803F4C063C2
:101A10001846BD465DF8047B704700BF007000406B
:101A200080B485B000AF78607B68B3F5007F30D1BB
:101A3000234B1B6803F4C063B3F5007F38D0204B01
:101A40001B6823F4C0631E4A43F4007313601D4BEC
:101A50001B68322202FB03F31B4AA2FB03239B0CED
:101A60000133FB6002E0FB68013BFB60144B5B69E8
:101A700003F48063B3F5806F02D1FB68002BF2D1D1
:101A80000F4B5B6903F48063B3F5806F10D10323C0
:101A90000FE00B4B1B6803F4C063B3F5806F07D0F6
:101AA000074B1B6823F4C063054A43F4806313604B
:101AB000002318461437BD465DF8047B704700BF0D
:101AC000007000400400002083DE1B4380B588B016
:101AD00000AF78607B68002B01D10123CAE3974BEC
:101AE0009B6803F00C03BB61944BDB6803F00303BA
:101AF0007B617B681B6803F01003002B00F0E4801F
:101B0000BB69002B07D0BB690C2B40F08B807B6935
:101B1000012B40F08780894B1B6803F00203002BE8
:101B200005D07B689B69002B01D10123A2E37B6870
:101B30001A6A824B1B6803F00803002B04D07F4B0A
:101B40001B6803F0F00305E07C4BD3F894301B09CD
:101B500003F0F003934223D27B681B6A184600F01F
:101B60001DFD0346002B01D0012383E3734B1B684B
:101B7000724A43F008031360704B1B6823F0F002B5
:101B80007B681B6A6D4913430B606C4B5B6823F4E5
:101B90007F427B68DB691B02684913434B6025E089
:101BA000664B1B68654A43F008031360634B1B6870
:101BB00023F0F0027B681B6A604913430B605F4BA4
:101BC0005B6823F47F427B68DB691B025B4913433C
:101BD0004B60BB69002B09D17B681B6A184600F07B
:101BE000DDFC0346002B01D0012343E300F04AFC57
:101BF0000246524B9B681B0903F00F035049CB5C14
:101C000003F01F0322FA03F34E4A13604E4B1B6886
:101C10001846FFF7DFFB0346FB73FB7B002B52D01C
:101C2000FB7B27E37B689B69002B32D0434B1B680F
:101C3000424A43F001031360FFF71CFC386108E0DF
:101C4000FFF718FC02463B69D31A022B01D9032384
:101C500010E33A4B1B6803F00203002BF0D0374B24
:101C60001B68364A43F008031360344B1B6823F0AB
:101C7000F0027B681B6A314913430B602F4B5B6892
:101C800023F47F427B68DB691B022C4913434B60C2
:101C90001AE02A4B1B68294A23F001031360FFF75F
:101CA000E9FB386108E0FFF7E5FB02463B69D31A20
:101CB000022B01D90323DDE2204B1B6803F0020352
:101CC000002BF0D100E000BF7B681B6803F001032C
:101CD000002B74D0BB69082B05D0BB690C2B0ED12F
:101CE0007B69032B0BD1154B1B6803F40033002BCE
:101CF00064D07B685B68002B60D10123BAE27B680B
:101D00005B68B3F5803F06D10C4B1B680B4A43F46C
:101D10008033136026E07B685B68B3F5A02F15D194
:101D2000064B1B68054A43F480231360034B1B6872
:101D3000024A43F48033136014E000BF00100240F5
:101D4000686600080400002008000020A04B1B6803
:101D50009F4A23F4803313609D4B1B689C4A23F4F5
:101D6000802313607B685B68002B13D0FFF782FB36
:101D7000386108E0FFF77EFB02463B69D31A642B0B
:101D800001D9032376E2924B1B6803F40033002B46
:101D9000F0D014E0FFF76EFB386108E0FFF76AFB54
:101DA00002463B69D31A642B01D9032362E2884BB4
:101DB0001B6803F40033002BF0D100E000BF7B6808
:101DC0001B6803F00203002B60D0BB69042B05D015
:101DD000BB690C2B19D17B69022B16D17C4B1B687C
:101DE00003F48063002B05D07B68DB68002B01D1F6
:101DF00001233FE2764B5B6823F0F8527B681B6956
:101E00001B06734913434B6040E07B68DB68002B83
:101E100023D06F4B1B686E4A43F480731360FFF747
:101E200029FB386108E0FFF725FB02463B69D31A1E
:101E3000022B01D903231DE2654B1B6803F4806369
:101E4000002BF0D0624B5B6823F0F8527B681B6973
:101E50001B065F4913434B6018E05D4B1B685C4AEF
:101E600023F480731360FFF705FB386108E0FFF788
:101E700001FB02463B69D31A022B01D90323F9E186
:101E8000534B1B6803F48063002BF0D17B681B6805
:101E900003F00803002B3CD07B685B69002B1CD04F
:101EA0004B4BD3F894304A4A43F00103C2F89430C4
:101EB000FFF7E0FA386108E0FFF7DCFA02463B6919
:101EC000D31A022B01D90323D4E1414BD3F8943028
:101ED00003F00203002BEFD01BE03D4BD3F894300E
:101EE0003B4A23F00103C2F89430FFF7C3FA38618C
:101EF00008E0FFF7BFFA02463B69D31A022B01D96B
:101F00000323B7E1324BD3F8943003F00203002BE4
:101F1000EFD17B681B6803F00403002B00F0A68060
:101F20000023FB772A4B9B6D03F08053002B0DD1D0
:101F3000274B9B6D264A43F080539365244B9B6D42
:101F400003F08053BB60BB680123FB77214B1B6808
:101F500003F48073002B18D11E4B1B681D4A43F4F9
:101F600080731360FFF786FA386108E0FFF782FAA2
:101F700002463B69D31A022B01D903237AE1154BA0
:101F80001B6803F48073002BF0D07B689B68012BE7
:101F900008D10F4BD3F890300D4A43F00103C2F83B
:101FA000903029E07B689B68052B15D1084BD3F84E
:101FB0009030074A43F00403C2F89030044BD3F842
:101FC0009030034A43F00103C2F8903014E000BFA0
:101FD00000100240007000409C4BD3F890309B4AA8
:101FE00023F00103C2F89030984BD3F89030974A11
:101FF00023F00403C2F890307B689B68002B16D056
:10200000FFF738FA38610AE0FFF734FA02463B6915
:10201000D31A41F28832934201D903232AE18B4B30
:10202000D3F8903003F00203002BEDD015E0FFF75A
:1020300021FA38610AE0FFF71DFA02463B69D31A1C
:1020400041F28832934201D9032313E17F4BD3F845
:10205000903003F00203002BEDD1FB7F012B05D163
:102060007A4B9B6D794A23F0805393657B689B6A1A
:10207000002B00F0FE807B689B6A022B40F0D08032
:10208000724BDB687B617B6903F003027B68DB6A70
:102090009A4230D17B6903F070027B681B6B013B75
:1020A0001B019A4227D17B6903F4FE427B685B6B7C
:1020B0001B029A421FD17B6903F400337A68926B4A
:1020C000072A14BF01220022D2B2934213D17B69A6
:1020D00003F4C0027B68DB6B5B08013B5B059A4243
:1020E00009D17B6903F0C0627B681B6C5B08013B14
:1020F0005B069A426ED0BB690C2B69D0534B1B68B0
:1021000003F08063002B05D1504B1B6803F0805314
:10211000002B01D00123ADE04C4B1B684B4A23F050
:1021200080731360FFF7A6F9386108E0FFF7A2F9A2
:1021300002463B69D31A022B01D903239AE0434B91
:102140001B6803F00073002BF0D1404BDA68404B62
:1021500013407A68D16A7A68126B013A120111430E
:102160007A68526B120211437A68D26B5208013AB4
:10217000520511437A68126C5208013A5206114313
:102180007A68926B120952040A4330491343CB60B8
:102190002E4B1B682D4A43F0807313602B4BDB687A
:1021A0002A4A43F08073D360FFF764F9386108E08E
:1021B000FFF760F902463B69D31A022B01D90323CA
:1021C00058E0224B1B6803F00073002BF0D050E066
:1021D00001234FE01D4B1B6803F00073002B48D117
:1021E0001A4B1B68194A43F080731360174BDB6866
:1021F000164A43F08073D360FFF73CF9386108E07A
:10220000FFF738F902463B69D31A022B01D90323A1
:1022100030E00E4B1B6803F00073002BF0D028E079
:10222000BB690C2B23D0094B1B68084A23F0807331
:102230001360FFF71FF938610CE0FFF71BF9024646
:102240003B69D31A022B05D9032313E00010024087
:102250008C809DF9094B1B6803F00073002BECD1B7
:10226000064BDA680549064B1340CB6001E00123B9
:1022700000E0002318462037BD4680BD0010024014
:10228000FCFFEEFE80B584B000AF786039607B68FB
:10229000002B01D10123E7E0754B1B6803F0070316
:1022A0003A689A4210D9724B1B6823F007027049B2
:1022B0003B6813430B606E4B1B6803F007033A68DF
:1022C0009A4201D00123CFE07B681B6803F0020330
:1022D000002B10D07B689A68664B9B6803F0F00374
:1022E0009A4208D9634B9B6823F0F0027B689B6895
:1022F000604913438B607B681B6803F00103002B6C
:102300004CD07B685B68032B07D15A4B1B6803F0EA
:102310000073002B21D10123A6E07B685B68022BB0
:1023200007D1544B1B6803F40033002B15D1012354
:102330009AE07B685B68002B07D14E4B1B6803F06B
:102340000203002B09D101238EE04A4B1B6803F4E2
:102350008063002B01D1012386E0464B9B6823F06C
:1023600003027B685B68434913438B60FFF782F885
:10237000F8600AE0FFF77EF80246FB68D31A41F2E4
:102380008832934201D903236EE03A4B9B6803F0F5
:102390000C027B685B689B009A42EBD17B681B68F0
:1023A00003F00203002B10D07B689A68314B9B68C6
:1023B00003F0F0039A4208D22E4B9B6823F0F00200
:1023C0007B689B682B4913438B60294B1B6803F088
:1023D00007033A689A4210D2254B1B6823F0070284
:1023E00023493B6813430B60214B1B6803F0070331
:1023F0003A689A4201D0012336E07B681B6803F0FB
:102400000403002B08D01B4B9B6823F4E0627B681D
:10241000DB68184913438B607B681B6803F0080373
:10242000002B09D0134B9B6823F460527B681B6917
:10243000DB00104913438B6000F024F802460D4B7B
:102440009B681B0903F00F030B49CB5C03F01F03D0
:1024500022FA03F3094A1360094B1B681846FEF77A
:10246000B9FF0346FB72FB7A18461037BD4680BDA4
:1024700000200240001002406866000804000020AE
:102480000800002080B489B000AF0023FB61002366
:10249000BB613E4B9B6803F00C033B613B4BDB682D
:1024A00003F00303FB603B69002B05D03B690C2B59
:1024B00021D1FB68012B1ED1344B1B6803F00803AC
:1024C000002B07D1314BD3F894301B0A03F00F03D4
:1024D000FB6105E02D4B1B681B0903F00F03FB613B
:1024E0002B4AFB6952F82330FB613B69002B0DD16D
:1024F000FB69BB610AE03B69042B02D1254BBB6140
:1025000004E03B69082B01D1234BBB613B690C2BD9
:1025100034D11E4BDB6803F00303BB60BB68022BA6
:1025200003D0BB68032B03D005E01A4B7B6105E0A9
:10253000194B7B6102E0FB697B6100BF134BDB68D9
:102540001B0903F0070301337B60104BDB681B0A98
:1025500003F07F037A6903FB02F27B68B2FBF3F3BB
:102560007B610A4BDB685B0E03F0030301335B0006
:102570003B607A693B68B2FBF3F3BB61BB69184609
:102580002437BD465DF8047B704700BF0010024051
:10259000786600080024F40000127A0080B586B046
:1025A00000AF786000233B612A4B9B6D03F08053A2
:1025B000002B03D0FFF726FA786114E0254B9B6DC2
:1025C000244A43F080539365224B9B6D03F0805364
:1025D000FB60FB68FFF716FA78611E4B9B6D1D4A86
:1025E00023F0805393657B69B3F5007F0BD17B6843
:1025F000802B19D97B68A02B02D902233B6113E001
:1026000001233B6110E07B68802B02D903233B61EF
:102610000AE07B68802B02D102233B6104E07B68E7
:10262000702B01D101233B610B4B1B6823F0070288
:1026300009493B6913430B60074B1B6803F0070311
:102640003A699A4201D0012300E000231846183766
:10265000BD4680BD001002400020024080B582B01F
:1026600000AF78607B68002B01D1012349E07B68D3
:1026700093F83D30DBB2002B06D17B68002283F853
:102680003C207868FEF7D6FC7B68022283F83D2068
:102690007B681A687B6804331946104600F01CFDFD
:1026A0007B68012283F848207B68012283F83E2062
:1026B0007B68012283F83F207B68012283F8402059
:1026C0007B68012283F841207B68012283F8422045
:1026D0007B68012283F843207B68012283F8442031
:1026E0007B68012283F845207B68012283F846201D
:1026F0007B68012283F847207B68012283F83D2014
:10270000002318460837BD4680BD000080B485B060
:1027100000AF78607B6893F83D30DBB2012B01D0CD
:1027200001234FE07B68022283F83D207B681B6811
:10273000DA687B681B6842F00102DA607B681B681C
:10274000234A93421DD07B681B68B3F1804F18D099
:102750007B681B681F4A934213D07B681B681E4A24
:1027600093420ED07B681B681C4A934209D07B6859
:102770001B681B4A934204D07B681B68194A93422A
:1027800015D17B681B689A68174B1340FB60FB6888
:10279000062B15D0FB68B3F5803F11D07B681B6812
:1027A0001A687B681B6842F001021A6008E07B68C7
:1027B0001B681A687B681B6842F001021A6000E01F
:1027C00000BF002318461437BD465DF8047B7047F0
:1027D000002C01400004004000080040000C0040B4
:1027E00000340140004001400700010080B582B084
:1027F00000AF78607B68002B01D1012349E07B6842
:1028000093F83D30DBB2002B06D17B68002283F8C1
:102810003C20786800F041F87B68022283F83D2074
:102820007B681A687B6804331946104600F054FC34
:102830007B68012283F848207B68012283F83E20D0
:102840007B68012283F83F207B68012283F84020C7
:102850007B68012283F841207B68012283F84220B3
:102860007B68012283F843207B68012283F844209F
:102870007B68012283F845207B68012283F846208B
:102880007B68012283F847207B68012283F83D2082
:10289000002318460837BD4680BD80B483B000AF22
:1028A000786000BF0C37BD465DF8047B70470000C0
:1028B00080B584B000AF786039603B68002B09D1E7
:1028C0007B6893F83E30DBB2012B14BF0123002359
:1028D000DBB23CE03B68042B09D17B6893F83F30C6
:1028E000DBB2012B14BF01230023DBB22FE03B68D6
:1028F000082B09D17B6893F84030DBB2012B14BF61
:1029000001230023DBB222E03B680C2B09D17B685A
:1029100093F84130DBB2012B14BF01230023DBB25B
:1029200015E03B68102B09D17B6893F84230DBB28D
:10293000012B14BF01230023DBB208E07B6893F86E
:102940004330DBB2012B14BF01230023DBB2002B89
:1029500001D001239CE03B68002B04D17B6802225C
:1029600083F83E2023E03B68042B04D17B680222DD
:1029700083F83F201BE03B68082B04D17B680222D0
:1029800083F8402013E03B680C2B04D17B680222C3
:1029900083F841200BE03B68102B04D17B680222B6
:1029A00083F8422003E07B68022283F843207B689F
:1029B0001B6801223968184600F0A4FF7B681B6879
:1029C000354A934213D07B681B68344A93420ED039
:1029D0007B681B68324A934209D07B681B68314A86
:1029E000934204D07B681B682F4A934201D1012394
:1029F00000E00023002B07D07B681B685A6C7B68C3
:102A00001B6842F400425A647B681B68224A934266
:102A10001DD07B681B68B3F1804F18D07B681B68A2
:102A2000224A934213D07B681B68214A93420ED0FE
:102A30007B681B681F4A934209D07B681B68174A52
:102A4000934204D07B681B68154A934215D17B687A
:102A50001B689A68184B1340FB60FB68062B15D067
:102A6000FB68B3F5803F11D07B681B681A687B68F0
:102A70001B6842F001021A6008E07B681B681A6854
:102A80007B681B6842F001021A6000E000BF00236F
:102A900018461037BD4680BD002C0140003401406F
:102AA0000040014000440140004801400004004053
:102AB00000080040000C00400700010080B584B011
:102AC00000AF78607B681B68DB68FB607B681B6815
:102AD0001B69BB60BB6803F00203002B20D0FB68BE
:102AE00003F00203002B1BD07B681B686FF002020F
:102AF0001A617B6801221A777B681B689B6903F067
:102B00000303002B03D0786800F0C7FA05E078686B
:102B100000F0B9FA786800F0CAFA7B6800221A77E8
:102B2000BB6803F00403002B20D0FB6803F0040310
:102B3000002B1BD07B681B686FF004021A617B6856
:102B400002221A777B681B689B6903F44073002B91
:102B500003D0786800F0A1FA05E0786800F093FAF5
:102B6000786800F0A4FA7B6800221A77BB6803F04B
:102B70000803002B20D0FB6803F00803002B1BD0B8
:102B80007B681B686FF008021A617B6804221A7761
:102B90007B681B68DB6903F00303002B03D07868B4
:102BA00000F07BFA05E0786800F06DFA786800F0D4
:102BB0007EFA7B6800221A77BB6803F01003002BB3
:102BC00020D0FB6803F01003002B1BD07B681B6830
:102BD0006FF010021A617B6808221A777B681B6805
:102BE000DB6903F44073002B03D0786800F055FADA
:102BF00005E0786800F047FA786800F058FA7B68DA
:102C000000221A77BB6803F00103002B0CD0FB688D
:102C100003F00103002B07D07B681B686FF00102F3
:102C20001A617868FDF7C0FFBB6803F08003002BD2
:102C300004D1BB6803F40053002B0CD0FB6803F0F5
:102C40008003002B07D07B681B686FF402521A6167
:102C5000786801F047F8BB6803F48073002B0CD050
:102C6000FB6803F08003002B07D07B681B686FF4C0
:102C700080721A61786801F03FF8BB6803F0400386
:102C8000002B0CD0FB6803F04003002B07D07B68BF
:102C90001B686FF040021A61786800F012FABB6896
:102CA00003F02003002B0CD0FB6803F02003002B63
:102CB00007D07B681B686FF020021A61786801F00A
:102CC00007F800BF1037BD4680BD000080B586B054
:102CD00000AFF860B9607A600023FB75FB6893F879
:102CE0003C30012B01D10223FFE0FB68012283F875
:102CF0003C207B68142B00F2F08001A252F823F0F4
:102D0000552D0008DB2E0008DB2E0008DB2E000806
:102D1000952D0008DB2E0008DB2E0008DB2E0008B6
:102D2000D72D0008DB2E0008DB2E0008DB2E000864
:102D3000172E0008DB2E0008DB2E0008DB2E000813
:102D4000592E0008DB2E0008DB2E0008DB2E0008C1
:102D5000992E0008FB681B68B968184600F062FAF3
:102D6000FB681B689A69FB681B6842F008029A615D
:102D7000FB681B689A69FB681B6822F004029A6171
:102D8000FB681B689969BB681A69FB681B680A4382
:102D90009A61A5E0FB681B68B968184600F0D2FA92
:102DA000FB681B689A69FB681B6842F400629A61C1
:102DB000FB681B689A69FB681B6822F480629A6151
:102DC000FB681B689969BB681B691A02FB681B6872
:102DD0000A439A6184E0FB681B68B968184600F0F2
:102DE0003BFBFB681B68DA69FB681B6842F0080262
:102DF000DA61FB681B68DA69FB681B6822F0040271
:102E0000DA61FB681B68D969BB681A69FB681B68D3
:102E10000A43DA6164E0FB681B68B968184600F091
:102E2000A3FBFB681B68DA69FB681B6842F400625D
:102E3000DA61FB681B68DA69FB681B6822F4806250
:102E4000DA61FB681B68D969BB681B691A02FB68F9
:102E50001B680A43DA6143E0FB681B68B9681846DF
:102E600000F0ECFBFB681B685A6DFB681B6842F0C6
:102E700008025A65FB681B685A6DFB681B6822F0E4
:102E800004025A65FB681B68596DBB681A69FB68C8
:102E90001B680A435A6523E0FB681B68B96818463B
:102EA00000F030FCFB681B685A6DFB681B6842F43D
:102EB00000625A65FB681B685A6DFB681B6822F448
:102EC00080625A65FB681B68596DBB681B691A02F2
:102ED000FB681B680A435A6502E00123FB7500BFCB
:102EE000FB68002283F83C20FB7D18461837BD465E
:102EF00080BD00BF80B584B000AF7860396000232A
:102F0000FB737B6893F83C30012B01D10223B6E0C0
:102F10007B68012283F83C207B68022283F83D20F5
:102F20007B681B689B68BB60BB6823F4803323F01D
:102F30007703BB60BB6823F47F43BB607B681B687F
:102F4000BA689A603B681B68B3F5005F3ED0B3F582
:102F5000005F00F28780B3F5805F00F08680B3F5F4
:102F6000805F7FD8702B1AD0702B7BD8602B50D00D
:102F7000602B77D8502B3CD0502B73D8402B58D097
:102F8000402B6FD8302B64D0302B6BD8202B60D0E7
:102F9000202B67D8002B5CD0102B5AD062E07B68C6
:102FA00018683B6899683B685A683B68DB6800F0C2
:102FB00089FC7B681B689B68BB60BB6843F0770338
:102FC000BB607B681B68BA689A604FE07B681868D2
:102FD0003B6899683B685A683B68DB6800F072FCA4
:102FE0007B681B689A687B681B6842F480429A6021
:102FF0003CE07B6818683B6859683B68DB681A46A8
:1030000000F0E6FB7B681B685021184600F03FFC8F
:103010002CE07B6818683B6859683B68DB681A4697
:1030200000F005FC7B681B686021184600F02FFC4F
:103030001CE07B6818683B6859683B68DB681A4687
:1030400000F0C6FB7B681B684021184600F01FFC9F
:103050000CE07B681A683B681B681946104600F054
:1030600016FC03E00123FB7300E000BF7B68012234
:1030700083F83D207B68002283F83C20FB7B1846C8
:103080001037BD4680BD80B483B000AF786000BF0C
:103090000C37BD465DF8047B704780B483B000AF49
:1030A000786000BF0C37BD465DF8047B704780B484
:1030B00083B000AF786000BF0C37BD465DF8047B7D
:1030C000704780B483B000AF786000BF0C37BD4656
:1030D0005DF8047B7047000080B485B000AF786075
:1030E00039607B681B68FB607B68464A934213D05B
:1030F0007B68B3F1804F0FD07B68434A93420BD07B
:103100007B68424A934207D07B68414A934203D08E
:103110007B68404A934208D1FB6823F07003FB6050
:103120003B685B68FA681343FB607B68354A9342EF
:103130001FD07B68B3F1804F1BD07B68324A93422B
:1031400017D07B68314A934213D07B68304A934250
:103150000FD07B682F4A93420BD07B682E4A934254
:1031600007D07B682D4A934203D07B682C4A934258
:1031700008D1FB6823F44073FB603B68DB68FA68A6
:103180001343FB60FB6823F080023B685B691343D9
:10319000FB607B68FA681A603B689A687B68DA6251
:1031A0003B681A687B689A627B68164A93420FD024
:1031B0007B68184A93420BD07B68174A934207D02A
:1031C0007B68164A934203D07B68154A934203D129
:1031D0003B681A697B681A637B6801225A617B68C5
:1031E0001B6903F00103012B05D17B681B6923F0E8
:1031F00001027B681A6100BF1437BD465DF8047B8D
:10320000704700BF002C014000040040000800404F
:10321000000C0040003401400040014000440140E7
:103220000048014080B487B000AF786039607B68A7
:103230001B6A7B617B681B6A23F001027B681A6250
:103240007B685B683B617B689B69FB60FB6823F480
:10325000803323F07003FB60FB6823F00303FB6003
:103260003B681B68FA681343FB607B6923F0020329
:103270007B613B689B687A6913437B617B682C4A5E
:1032800093420FD07B682B4A93420BD07B682A4A2B
:10329000934207D07B68294A934203D07B68284A2F
:1032A00093420CD17B6923F008037B613B68DB68A8
:1032B0007A6913437B617B6923F004037B617B683C
:1032C0001B4A93420FD07B681A4A93420BD07B680B
:1032D000194A934207D07B68184A934203D07B680F
:1032E000174A934211D13B6923F480733B613B69D8
:1032F00023F400733B613B685B693A6913433B61AC
:103300003B689B693A6913433B617B683A695A6041
:103310007B68FA689A613B685A687B685A637B6885
:103320007A691A6200BF1C37BD465DF8047B70479E
:10333000002C0140003401400040014000440140A5
:103340000048014080B487B000AF786039607B6886
:103350001B6A7B617B681B6A23F010027B681A6220
:103360007B685B683B617B689B69FB60FB6823F063
:10337000807323F4E043FB60FB6823F44073FB603D
:103380003B681B681B02FA681343FB607B6923F0F0
:1033900020037B613B689B681B017A6913437B6157
:1033A0007B68284A934203D07B68274A93420DD119
:1033B0007B6923F080037B613B68DB681B017A69D2
:1033C00013437B617B6923F040037B617B681D4A6B
:1033D00093420FD07B681C4A93420BD07B681B4AF8
:1033E000934207D07B681A4A934203D07B68194AFC
:1033F000934213D13B6923F480633B613B6923F41F
:1034000000633B613B685B699B003A6913433B6126
:103410003B689B699B003A6913433B617B683A694F
:103420005A607B68FA689A613B685A687B689A635D
:103430007B687A691A6200BF1C37BD465DF8047B61
:10344000704700BF002C01400034014000400140A3
:10345000004401400048014080B487B000AF78606C
:1034600039607B681B6A7B617B681B6A23F480720E
:103470007B681A627B685B683B617B68DB69FB6029
:10348000FB6823F4803323F07003FB60FB6823F0B8
:103490000303FB603B681B68FA681343FB607B69AE
:1034A00023F400737B613B689B681B027A691343BA
:1034B0007B617B68274A934203D07B68264A93420C
:1034C0000DD17B6923F400637B613B68DB681B02E1
:1034D0007A6913437B617B6923F480637B617B683A
:1034E0001C4A93420FD07B681B4A93420BD07B68E7
:1034F0001A4A934207D07B68194A934203D07B68EB
:10350000184A934213D13B6923F480533B613B69D2
:1035100023F400533B613B685B691B013A69134329
:103520003B613B689B691B013A6913433B617B68C4
:103530003A695A607B68FA68DA613B685A687B6866
:10354000DA637B687A691A6200BF1C37BD465DF892
:10355000047B7047002C01400034014000400140D2
:10356000004401400048014080B487B000AF78605B
:1035700039607B681B6A3B617B681B6A23F480525D
:103580007B681A627B685B687B617B68DB69FB60D8
:10359000FB6823F0807323F4E043FB60FB6823F4B3
:1035A0004073FB603B681B681B02FA681343FB60B7
:1035B0003B6923F400533B613B689B681B033A69FA
:1035C00013433B617B68184A93420FD07B68174ACC
:1035D00093420BD07B68164A934207D07B68154A0A
:1035E000934203D07B68144A934209D17B6923F448
:1035F00080437B613B685B699B017A6913437B6114
:103600007B687A695A607B68FA68DA613B685A6855
:103610007B681A647B683A691A6200BF1C37BD4632
:103620005DF8047B704700BF002C0140003401406E
:1036300000400140004401400048014080B487B090
:1036400000AF786039607B681B6A3B617B681B6AEE
:1036500023F480327B681A627B685B687B617B68DD
:103660005B6DFB60FB6823F4803323F07003FB6029
:103670003B681B68FA681343FB603B6923F4003323
:103680003B613B689B681B043A6913433B617B6861
:10369000174A93420FD07B68164A93420BD07B683F
:1036A000154A934207D07B68144A934203D07B6843
:1036B000134A934209D17B6923F480337B613B68D1
:1036C0005B691B027A6913437B617B687A695A6084
:1036D0007B68FA685A653B685A687B689A657B68BC
:1036E0003A691A6200BF1C37BD465DF8047B70471B
:1036F000002C0140003401400040014000440140E2
:103700000048014080B487B000AF786039607B68C2
:103710001B6A3B617B681B6A23F480127B681A6218
:103720007B685B687B617B685B6DFB60FB6823F09B
:10373000807323F4E043FB603B681B681B02FA685C
:103740001343FB603B6923F400133B613B689B68B8
:103750001B053A6913433B617B68184A93420FD0BB
:103760007B68174A93420BD07B68164A934207D076
:103770007B68154A934203D07B68144A934209D16F
:103780007B6923F480237B613B685B699B027A69D8
:1037900013437B617B687A695A607B68FA685A6573
:1037A0003B685A687B68DA657B683A691A6200BFD1
:1037B0001C37BD465DF8047B704700BF002C0140FC
:1037C00000340140004001400044014000480140F5
:1037D00080B487B000AFF860B9607A60FB681B6A9C
:1037E0007B61FB681B6A23F00102FB681A62FB68BD
:1037F0009B693B613B6923F0F0033B617B681B01E4
:103800003A6913433B617B6923F00A037B617A6960
:10381000BB6813437B61FB683A699A61FB687A690C
:103820001A6200BF1C37BD465DF8047B704780B448
:1038300087B000AFF860B9607A60FB681B6A7B6193
:10384000FB681B6A23F01002FB681A62FB689B6925
:103850003B613B6923F470433B617B681B033A691E
:1038600013433B617B6923F0A0037B61BB681B01B1
:103870007A6913437B61FB683A699A61FB687A69EC
:103880001A6200BF1C37BD465DF8047B704780B4E8
:1038900085B000AF786039607B689B68FB60FB682F
:1038A00023F07003FB603A68FB68134343F007039F
:1038B000FB607B68FA689A6000BF1437BD465DF80C
:1038C000047B704780B487B000AFF860B9607A605D
:1038D0003B60FB689B687B617B6923F47F437B6172
:1038E0003B681A027B681A43BB6813437A69134327
:1038F0007B61FB687A699A6000BF1C37BD465DF842
:10390000047B704780B487B000AFF860B9607A601C
:10391000BB6803F01F03012202FA03F37B61FB681B
:103920001A6A7B69DB431A40FB681A62FB681A6AF1
:10393000BB6803F01F03796801FA03F31A43FB68BD
:103940001A6200BF1C37BD465DF8047B704700005B
:1039500080B584B000AF786039603B68002B09D136
:103960007B6893F84430DBB2012B14BF01230023A2
:10397000DBB222E03B68042B09D17B6893F8453029
:10398000DBB2012B14BF01230023DBB215E03B683F
:10399000082B09D17B6893F84630DBB2012B14BFAA
:1039A00001230023DBB208E07B6893F84730DBB2E9
:1039B000012B14BF01230023DBB2002B01D0012314
:1039C0006EE03B68002B04D17B68022283F8442020
:1039D00013E03B68042B04D17B68022283F8452066
:1039E0000BE03B68082B04D17B68022283F8462059
:1039F00003E07B68022283F847207B681B6804226F
:103A00003968184600F082F97B681B685A6C7B683D
:103A10001B6842F400425A647B681B68224A934246
:103A20001DD07B681B68B3F1804F18D07B681B6882
:103A30001E4A934213D07B681B681D4A93420ED0E6
:103A40007B681B681B4A934209D07B681B681A4A33
:103A5000934204D07B681B68184A934215D17B6857
:103A60001B689A68164B1340FB60FB68062B15D049
:103A7000FB68B3F5803F11D07B681B681A687B68D0
:103A80001B6842F001021A6008E07B681B681A6834
:103A90007B681B6842F001021A6000E000BF00234F
:103AA00018461037BD4680BD002C01400004004080
:103AB00000080040000C004000340140004001407C
:103AC0000700010080B485B000AF786039607B6882
:103AD00093F83C30012B01D1022368E07B6801227E
:103AE00083F83C207B68022283F83D207B681B68BA
:103AF0005B68FB607B681B689B68BB607B681B68BE
:103B00002E4A934204D07B681B682D4A934208D109
:103B1000FB6823F47003FB603B685B68FA6813433F
:103B2000FB60FB6823F07003FB603B681B68FA686E
:103B30001343FB607B681B68FA685A607B681B68EC
:103B40001E4A93421DD07B681B68B3F1804F18D08A
:103B50007B681B681B4A934213D07B681B681A4A18
:103B600093420ED07B681B68184A934209D07B6849
:103B70001B68134A934204D07B681B68144A934223
:103B80000CD1BB6823F08003BB603B689B68BA68BC
:103B90001343BB607B681B68BA689A607B6801222C
:103BA00083F83D207B68002283F83C2000231846E0
:103BB0001437BD465DF8047B704700BF002C014000
:103BC000003401400004004000080040000C0040A8
:103BD0000040014080B485B000AF786039600023B8
:103BE000FB607B6893F83C30012B01D1022365E038
:103BF0007B68012283F83C20FB6823F0FF023B68CE
:103C0000DB681343FB60FB6823F440723B689B68EE
:103C10001343FB60FB6823F480623B685B681343DB
:103C2000FB60FB6823F400623B681B681343FB6086
:103C3000FB6823F480523B681B691343FB60FB68FD
:103C400023F400523B685B691343FB60FB6823F479
:103C500080423B689B6A1343FB60FB6823F470223D
:103C60003B689B691B041343FB607B681B68164A17
:103C7000934204D07B681B68144A934215D1FB68B9
:103C800023F470023B685B6A1B051343FB60FB680F
:103C900023F080723B68DB691343FB60FB6823F011
:103CA00000723B681B6A1343FB607B681B68FA6801
:103CB0005A647B68002283F83C200023184614379E
:103CC000BD465DF8047B7047002C01400034014084
:103CD00080B483B000AF786000BF0C37BD465DF89C
:103CE000047B704780B483B000AF786000BF0C37AE
:103CF000BD465DF8047B704780B483B000AF786048
:103D000000BF0C37BD465DF8047B704780B487B0B8
:103D100000AFF860B9607A60BB6803F00F0304225B
:103D200002FA03F37B61FB681A6A7B69DB431A4082
:103D3000FB681A62FB681A6ABB6803F00F037968B4
:103D400001FA03F31A43FB681A6200BF1C37BD4631
:103D50005DF8047B70472DE9FF4757EC106B002F8F
:103D60000C4619463B46BBBF07F100431F460023E4
:103D70002D230B700D9BDDF830A0914623F0200819
:103D8000BCBF32461646B8F1460F05D0B8F1450F14
:103D900000D10134022100E0032103AB019302AB07
:103DA000009347EC106B5346224600F039FEB8F101
:103DB000470F054619D119F0010F0ED000EB040989
:103DC0000022002330463946FCF77EFE08B1CDF8CC
:103DD0000C903022039B4B451ED3039B0E9A5B1B1A
:103DE0002846136004B0BDE8F087B8F1460F00EB39
:103DF0000409E5D10378302B0AD100220023304694
:103E00003946FCF761FE18B9C4F10104CAF8004054
:103E1000DAF800309944D3E7591C03911A70D9E7B6
:103E2000F7B50029BABF49422D232B230929027077
:103E3000437029DD0DF107031D460A271A46B1FB21
:103E4000F7F607FB1614303402F8014C0C46632CCD
:103E500003F1FF333146F1DC3031941E03F8011CCD
:103E6000411C2346AB420AD30DF109039B1AAC4215
:103E700088BF002302330344181A03B0F0BD13F8BF
:103E8000016B01F8016FEDE7302330318370C170B1
:103E9000031DF1E72DE9F04F8DB00C46DDF8588099
:103EA00016461F46054600F0BBFC036804931846FF
:103EB000FCF7DEF900230A93D8F8003005900733A9
:103EC00023F0070303F1080294F818A0D4F800B017
:103ED000C8F80020D3E9008929F000430793CDF802
:103EE0001880C4E91289DDE906019C4B4FF0FF32CE
:103EF000FCF71CFE70BBDDE90601984B4FF0FF326A
:103F0000FCF7F6FD30BB0022002340464946FCF793
:103F1000E5FD10B12D2384F84330914A914BBAF15D
:103F2000470F94BF90469846032323612BF0040368
:103F300023604FF00009009733460BAA214628461C
:103F400000F0D2F9013040F08D804FF0FF300DB01D
:103F5000BDE8F08F42464B4640464946FCF7E6FD39
:103F600040B14B46002BBCBF2D2384F843307E4A22
:103F70007E4BD4E763680AF0DF0206925A1C3BD1FD
:103F8000062363604BF480620023226003930AAB34
:103F9000CDE901A309AB0093616849EC108B0DF1E9
:103FA00023032846FFF7D7FE069B0999472B804637
:103FB00029D1C81C02DB6368994241DDAAF1020ADB
:103FC0005FFA8AFA0139524604F150000991FFF76D
:103FD00027FF0A9A1318012A8146236102DC22680E
:103FE000D20701D5013323619DF82330002BA2D0E5
:103FF0002D2384F843309EE7069A472AC2D1002B2E
:10400000C0D10123BDE7BAF1650FDBD9BAF1660F64
:1040100018D1002963680BDD216113B92268D0072C
:1040200002D501330B442361A1654FF00009DBE7A2
:1040300013B92268D20701D50233F4E70123F2E76E
:104040004FF0670A0A9B994205DB23682161D80774
:10405000EAD54B1CE7E70029D4BFC1F102020122D7
:104060001344E0E723685A0507D4236942463146E2
:104070002846B84701302BD167E7BAF1650F40F207
:10408000DD80D4E9120100220023FCF71DFD002889
:1040900033D0374A012331462846B84701303FF430
:1040A00054AFDDE90938434502DB2368D8070FD553
:1040B000DDE9042331462846B84701303FF445AFD7
:1040C0004FF0000908F1FF3804F11A0AC84509DC6D
:1040D00023689B0700F10381E0680B9B9842B8BFFF
:1040E000184634E70123524631462846B847013086
:1040F0003FF42BAF09F10109E8E7099B002B39DCFC
:104100001B4A012331462846B84701303FF41DAF12
:10411000DDE9093959EA030302D12368D907D7D564
:10412000DDE9042331462846B84701303FF40DAF9E
:104130004FF0000A04F11A0B099B5B42534501DC66
:104140004B4693E701235A4631462846B84701308B
:104150003FF4FBAE0AF1010AEEE700BFFFFFEF7F7D
:10416000A8660008AC660008B0660008B4660008DF
:10417000B8660008A36DDDF828A05345A8BF5346D4
:10418000002B994636DC4FF0000B29EAE97904F15F
:104190001A02A36D0693A3EB09035B4531DC099B6F
:1041A0009A453ADC2368DA0737D4099BAAEB03095E
:1041B000069BAAEB03039945A8BF9946B9F1000FE6
:1041C00033DC4FF0000829EAE97904F11A0B099B66
:1041D000AAEB0303A3EB090343457FF779AF012360
:1041E0005A4631462846B84701303FF4AEAE08F192
:1041F0000108ECE7424631462846B8470130C2D1B3
:10420000A3E60123314628460692B84701303FF421
:104210009CAE069A0BF1010BBBE7DDE904233146A6
:104220002846B8470130C0D18FE6069A4B46424433
:1042300031462846B8470130C3D186E6DDF828A0CC
:10424000BAF1010F01DCDB0736D5012342463146C6
:104250002846B84701303FF478AEDDE90423314603
:104260002846B84701303FF470AED4E9120100226D
:1042700000230AF1FF3AFCF727FCC0B9534608F1C6
:10428000010231462846B84701300CD15DE60123D2
:104290005A4631462846B84701303FF456AE08F139
:1042A0000108D045F3DB4B4604F15002DFE64FF046
:1042B000000804F11A0BF4E701234246E1E7012369
:1042C0004A4631462846B84701303FF43EAE08F131
:1042D0000108E3680B995B1A4345F0DCFCE64FF0FC
:1042E000000804F11909F4E72DE9F047164698464D
:1042F0008A680B69DDF820909342B8BF134633609B
:1043000091F8432007460C460AB101333360236815
:10431000990642BF336802333360256815F00605FD
:1043200006D104F1190AE36832689B1AAB4226DC15
:1043300094F843302268003B18BF012392062BD427
:1043400004F1430241463846C84701301ED0236875
:10435000226903F00603042B02BFE5683368ED1AF7
:10436000A3680CBF25EAE57500259342C4BF9B1ADC
:10437000ED1800261A34B5421AD1002008E00123B6
:10438000524641463846C847013003D14FF0FF300E
:10439000BDE8F0870135C6E7E1185A1C302081F8E6
:1043A0004300224494F8451082F843100233C7E7D3
:1043B0000123224641463846C8470130E6D001363F
:1043C000D9E700002DE9FF470F7E0C9E782F91461C
:1043D00080460C469A4601F1430207D8622F0AD85C
:1043E000002F00F0D280582F00F0B98004F142066F
:1043F00084F842703AE0A7F16303152BF6D801A1C7
:1044000051F823F05D44000871440008ED430008B2
:10441000ED430008ED430008ED4300087144000837
:10442000ED430008ED430008ED430008ED430008AC
:10443000714500089B4400082B450008ED43000827
:10444000ED43000893450008ED4300089B44000835
:10445000ED430008ED4300083345000833681A1D9A
:104460001B68326004F1420684F8423001239DE06B
:1044700033682068191D3160060601D51D6803E008
:104480004506FBD5B3F90050002D03DA2D236D420C
:1044900084F8433059480A2311E02168336808063C
:1044A00053F8045B02D4490648BFADB26F2F53489E
:1044B000336014BF0A230823002184F84310666880
:1044C000A660002EA2BF216821F0040121600DB971
:1044D000002E4BD01646B5FBF3F103FB1157C75D19
:1044E00006F8017D2F46BB420D46F4D9082B0BD1AF
:1044F0002368DF0708D5236961689942DEBF30234E
:1045000006F8013C06F1FF36921B2261CDF800A0AF
:104510004B4603AA21464046FFF7E6FE01304AD14A
:104520004FF0FF3004B0BDE8F087236843F020036C
:1045300023603348782784F84570236831681F0664
:1045400051F8045B02D45F0648BFADB23160D907B1
:1045500044BF43F0200323601DB11023ACE727487C
:10456000E9E7236823F020032360F6E71646BDE75A
:10457000336825686169181D30602E061B6801D5F7
:10458000196002E06806FBD51980002323611646F6
:10459000BCE733681A1D32601E686268002130462D
:1045A000FBF716FE08B1801B60606368236100237F
:1045B00084F84330AAE72369324649464046D0474B
:1045C0000130ADD023689B0713D4E068039B984269
:1045D000B8BF1846A6E70123324649464046D047B1
:1045E00001309DD00135E36803995B1AAB42F2DCE0
:1045F000EBE7002504F11906F5E700BFBA660008ED
:10460000CB660008002310B50446C0E90033C0E9BA
:104610000433836081814366C28183611946082225
:104620005C3000F0F4F80D4B63620D4BA3620D4B50
:10463000E3620D4B23630D4B24629C4206D003F1D1
:104640006802944202D0D0339C4205D104F1580054
:10465000BDE8104000F058B910BD00BF8947000800
:10466000AB470008E3470008074800084C02002059
:10467000024A0349034800F069B800BF1000002057
:10468000B55F00082000002041680C4B994210B52E
:10469000044601D001F08EFCA168094B994202D07A
:1046A000204601F087FCE168064B994204D0204681
:1046B000BDE8104001F07EBC10BD00BF4C020020E0
:1046C000B40200201C03002010B50B4B0B4C0C4A0D
:1046D0001A60204600220421FFF794FF04F16800CD
:1046E00001220921FFF78EFF04F1D0000222BDE86C
:1046F00010401221FFF786BF840300204C020020E7
:1047000071460008014800F000B900BF8D03002089
:10471000014800F0FBB800BF8D03002010B504462F
:10472000FFF7F0FF236A1BB1BDE81040FFF7F0BFB1
:10473000044B2362044B1B68002BF5D1FFF7C4FF29
:10474000F2E700BF89460008840300202DE9F84302
:104750000746884614460026D4E90195B9F10109B7
:1047600005D52468002CF7D13046BDE8F883AB8925
:10477000012B07D9B5F90E30013303D0294638464D
:10478000C04706436835E9E710B50C46B1F90E108D
:1047900000F06CF80028ABBF636DA3891B1823F4ED
:1047A0008053ACBF6365A38110BD2DE9F0411F4666
:1047B0008B89DB0505460C46164605D5B1F90E106A
:1047C0000223002200F040F8A389B4F90E1023F46C
:1047D0008053A38132463B462846BDE8F04100F0B5
:1047E00057B810B50C46B1F90E1000F02DF8431C67
:1047F000A38915BF606523F4805343F48053A381DC
:1048000018BFA38110BDB1F90E1000F00DB802441D
:104810000346934200D1704703F8011BF9E70000FB
:10482000004870475C01002038B5064D002304465F
:1048300008462B60FCF710FD431C02D12B6803B126
:10484000236038BD8803002038B5074D044608466C
:10485000114600222A601A46FCF725FD431C02D1AE
:104860002B6803B1236038BD8803002038B5074D9D
:1048700004460846114600222A601A46FCF7B3FC9B
:10488000431C02D12B6803B1236038BD880300208C
:1048900038B5074D04460846114600222A601A46DC
:1048A000FCF7BEFC431C02D12B6803B1236038BD6A
:1048B00088030020014B1868704700BF1C000020CF
:1048C00070B50D4D0D4C641BA4100026A64209D1F5
:1048D0000B4D0C4C01F0BCFE641BA4100026A6423C
:1048E00005D170BD55F8043B98470136EEE755F801
:1048F000043B98470136F2E7206A0008206A000866
:10490000206A0008246A00087047704770472DE944
:10491000F74F03690C69A34207467EDB013C01F1B6
:104920001408A30000F11405009305EB8403019320
:1049300058F8243055F8242001339A4208EB8409B2
:10494000B2FBF3F62ED34FF0000AC446AE46D34670
:104950005CF8043B98B206FB00A0020C1B0C06FBA3
:104960000323DEF8002080B292B2121A5A44DEF815
:1049700000004FEA134A9BB2C3EB224303EB104300
:1049800092B242EA0342E1454EF8042B4FEA234B30
:10499000DED2009BEB582BB9019B043B9D421A468B
:1049A0002FD33C61384601F079F9002825DB2946F0
:1049B000002058F8042BD1F800C01FFA82FE1FFA1D
:1049C0008CF3A3EB0E030344120CC2EB234202EB65
:1049D0001C429BB243EA0243C14541F8043B4FEA03
:1049E0002240E6D255F8242005EB840322B9043B8B
:1049F0009D421A460BD33C610136304603B0BDE8F8
:104A0000F08F1268043B002ACBD1013CC6E7126844
:104A1000043B002AEFD1013CEAE70020EEE700006A
:104A20002DE9F04FC76999B08DED020B55EC104B95
:104A3000229E099183460E9213937FB9102000F0B5
:104A4000FDFD0246CBF81C0020B9A74BEF21A7487B
:104A500001F0F6FAC0E901770760C760DBF81C30A7
:104A6000196859B15A684A60012393408B605846CF
:104A700000F0DAFEDBF81C3000221A602B1EB9BFF2
:104A800023F00043039300233360039F984BBCBF84
:104A900001223260BB4312D1139A42F20F731360AA
:104AA000C7F31303234300F04D85239BDFF854A283
:104AB000002B00F04F850AF1030300F049BD9DED86
:104AC000027B002251EC170B00238DED0C7BFBF7D2
:104AD000FBFF804658B1139A01231360239B13B147
:104AE000239A844B1360DFF820A200F033BD9DEDC4
:104AF0000C0B16AA17A9584601F080F9C7F30A56FD
:104B00008146002E77D00D9BCDF85080C3F3130360
:104B1000DDE90C0143F07F5343F44013A6F2FF3666
:104B200019460022744BFBF7AFFB69A3D3E90023BE
:104B3000FBF762FD68A3D3E90023FBF7A7FB04465C
:104B400030460D46FBF7EEFC65A3D3E90023FBF7E7
:104B500053FD02460B4620462946FBF797FB0446C9
:104B60000D46FBF7F9FF00220746002320462946A1
:104B7000FBF7B4FF40B13846FBF7D4FC22462B4686
:104B8000FBF7A2FF00B9013F162F51D85B4B03EB97
:104B9000C703D3E90023DDE90C01FBF79FFF0028E1
:104BA00048D0013F00231293169B9B1B5A1E44BF03
:104BB000C3F101080023089254BF4FF00008089386
:104BC000002F39DB089B0F973B44089300230A937F
:104BD000099B092B64D8052BC4BF043B0993099B8F
:104BE000A3F10203CCBF00240124032B63D8DFE828
:104BF00003F02A373555DDE916631E4406F23243C9
:104C0000202BC1BFC3F140039F4006F2124324FA98
:104C100003F3D6BFC3F1200347EA030004FA03F00D
:104C2000FBF770FC0122A1F1F873013E149277E7C3
:104C30000123B8E71290B7E77B420A930023A8EB61
:104C400007080F93C4E700230B930E9B002B35DC62
:104C50000123009307931A460E920BE00123F3E71A
:104C600000230B930E9BFB1800930133012B07933A
:104C7000B8BF0123DBF81C000021042202F1140557
:104C80009D421FD94160584600F08EFD82460028A3
:104C90003CD11B4B024640F2AF11D8E60123E0E7BE
:104CA0000124002309930B944FF0FF3300930793E3
:104CB00000221223D0E701230B93F5E70E9B00930C
:104CC0000793D7E701315200D8E700BFAFF3008068
:104CD00061436F63A787D23FB3C8608B288AC63F02
:104CE000FB799F501344D33FE96600080067000832
:104CF0000000F07FB96600080000F83FF867000880
:104D000058670008E5660008B8660008DBF81C3044
:104D10001860079B0E2B00F2A480002C00F0A180ED
:104D2000002F33DDAD4B07F00F0203EBC20393ED11
:104D3000007BF8058DED047B4FEA271416D5A84BB0
:104D4000DDE90C01D3E90823FBF780FDCDE9020181
:104D500004F00F040326A24D54B9DDE90423DDE974
:104D60000201FBF773FDCDE9020128E00226F2E71C
:104D7000E10708D5DDE90401D5E90023FBF73CFC98
:104D8000CDE90401013664100835E5E700F0D28072
:104D90007C42924B924D04F00F0203EBC203D3E925
:104DA0000023DDE90C01FBF727FCCDE9020124110A
:104DB00000230226002C40F0B280002BD3D1129B9E
:104DC000DDE90245002B00F0B780864B002220462B
:104DD0002946FBF783FE002800F0AE80079B002BDE
:104DE00000F0AA80009B002B37DD7B1E0493204639
:104DF0007D4B00222946FBF7FFFBCDE90201009C19
:104E000001363046FBF78EFBDDE90223FBF7F4FBAE
:104E1000764B0022FBF73AFA0546A1F15076002CBA
:104E200040F08D80DDE90201714B0022FBF72CFA86
:104E300002460B46CDE902232A463346FBF76CFEB9
:104E4000002840F08B82DDE902012A4606F100438A
:104E5000FBF744FE002840F02881DDE90C34CDE961
:104E60000234179B002BC0F25A810E2F00F357819A
:104E70005A4B03EBC70393ED007B0E9B002B8DED8C
:104E8000007B03DA079B002B40F30181DDE902453B
:104E90005646DDE9002320462946FBF7D7FCFBF701
:104EA0005BFE8046FBF73EFBDDE90023FBF7A4FB3E
:104EB00002460B462046294608F13004FBF7E4F988
:104EC00006F8014B079DA6EB0A04A54202460B46D5
:104ED00040F01781FBF7DAF9DDE9002304460D46BF
:104EE000FBF71AFE002840F0F980DDE90023204698
:104EF0002946FBF7E9FD18B118F0010F40F0EE80EC
:104F00004946584600F090FC00233370139B01374C
:104F10001F60239B002B00F01D831E601AE3E20735
:104F200005D5D5E90023FBF767FB013601236410A3
:104F300008353FE7022642E7079C049761E7274BC5
:104F40000B9903EBC40353E902235444002953D0C3
:104F500028490020FBF77AFC33462A46FBF794F9F0
:104F6000CDE910015646DDE90201FBF7F5FD0546E6
:104F7000FBF7D8FA02460B46DDE90201FBF784F99C
:104F8000303502460B46CDE9022306F8015BDDE928
:104F90001023FBF7A3FD002871D1DDE9022311499D
:104FA0000020FBF771F9DDE91023FBF797FD0028DE
:104FB00040F09580A6423FF450AFDDE910010A4B66
:104FC0000022FBF719FB084BCDE910010022DDE9B7
:104FD0000201FBF711FBCDE90201C4E7F867000805
:104FE000D06700080000F03F0000244000001C4093
:104FF000000014400000E03F31462846FBF7FCFA71
:10500000CDE9100115945646DDE90201FBF7A4FD38
:105010000546FBF787FA02460B46DDE90201FBF77E
:1050200033F9303506F8015B02460B46A642CDE95E
:1050300002234FF0000224D1AC4BDDE91001FBF755
:1050400025F902460B46DDE90201FBF765FD002864
:1050500045D1DDE91023A5490020FBF715F90246EB
:105060000B46DDE90201FBF739FD00283FF4F5AE00
:10507000159E731E159316F8013C302BF8D0049F33
:105080003EE79B4BFBF7B8FACDE90201BCE70CD138
:10509000984B0022DDE90001FBF7AEFADDE90223BF
:1050A000FBF730FD002800F05781002425460E9BB9
:1050B000DB430493564600272146584600F0B4FBD4
:1050C000002DDCD02FB1AF4203D03946584600F056
:1050D000ABFB2946584600F0A7FBD0E704973346C0
:1050E0001E4613F8012D392A07D19A45F8D1049AA2
:1050F0000132049230228AF800201A7801321A70A4
:10510000BDE77B4B0022FBF777FA00220023044621
:105110000D46FBF7D9FC00283FF4BBAEF0E60B9A36
:10512000002A00F0DB80099A012A00F3BF80149A5C
:10513000002A00F0B78003F233430A9C4646089ADF
:1051400001211A4458469844089200F021FC054673
:105150005EB1089B002B08DDB342089AA8BF334616
:10516000A8EB0308F61AD31A08930A9BF3B10B9B1A
:10517000002B00F0B7808CB129462246584600F03B
:10518000C7FC4A4601460546584600F017FC49460A
:105190000490584600F048FB049B99460A9B1A1B52
:1051A00004D04946584600F0B3FC814601215846D8
:1051B00000F0EEFB0F9B0446002B00F0CF811A4657
:1051C0000146584600F0A4FC099B012B044600F35D
:1051D0009580029B002B40F08780039BC3F3130351
:1051E000002B40F08980039B23F000431B0D1B051F
:1051F0002BB1089B0133089308F1010801230A939E
:105200000F9B002B00F0B081236904EB8303186926
:1052100000F072FBC0F12000089B184410F01F0042
:1052200077D0C0F12003042B6BDD089BC0F11C007C
:105230000344804406440893B8F1000F05DD494655
:105240004246584600F0BEFC8146089B002B05DD17
:1052500021461A46584600F0B5FC0446129B002B26
:1052600059D02146484600F019FD002853DA7B1E2C
:105270000493494600230A22584600F0F7FA0B9B94
:105280008146002B00F07281002329460A225846ED
:1052900000F0ECFA009B002B054667DC099B022B13
:1052A00041DC63E0169BC3F1360346E7079B5C1EB7
:1052B0000A9BA342BFBF0A9B0F9A0A94E31AB4BF8A
:1052C000D2181C1B079BBCBF0F920024002BB5BF3C
:1052D000A8EB0306079B0023464630E70A9C0B9D7C
:1052E000464635E70A9A5CE7002388E70000E03F7E
:1052F0000000244000001440029B80E700230A9332
:1053000082E799D0089A1C331A4498441E440892A4
:1053100092E70346F6E7079B0497002B20DC0093F7
:10532000099B022B1EDD009B002B7FF4C0AE2146A3
:105330000522584600F09AFA01460446484600F015
:10534000ADFC00287FF7B3AE5646312306F8013B8B
:10535000049B01330493AEE6079C04972546F3E7CC
:10536000079B00930B9B002B00F00481002E05DDB2
:1053700029463246584600F025FC05460A9B002B7C
:105380005AD06968584600F00FFA064628B9844B8F
:10539000024640F2EF21FFF75ABB2A69023292001F
:1053A00005F10C010C3000F03DFE0122314658465B
:1053B00000F008FC0AF101030793009B53440B9390
:1053C000029B03F001032F460A930546079B2146E3
:1053D000013B48460093FFF79AFA3946029000F1E4
:1053E0003008484600F05AFC2A46089021465846A4
:1053F00000F070FCC268064602BB0146484600F059
:105400004DFC0246314658460E9200F00DFA099BBB
:105410000E9A079E43EA02010A9B194310D1B8F184
:10542000390F29D0089B002B02DD029B03F13108C4
:10543000009B83F800803FE62846BBE70122E1E7B6
:10544000089B002B04DB09990B430A990B4320D1DD
:10545000002AEDDD49460122584600F0B3FB214603
:10546000814600F01BFC002803DCE1D118F0010F9D
:10547000DED0B8F1390FD8D1009A392313703346F2
:105480001E46013B16F8012C392A52D001321A70FF
:1054900012E6002A07DDB8F1390FEDD0009A08F1C5
:1054A0000103137008E6079B079A03F8018C0B9B16
:1054B000934228D0494600230A22584600F0D6F9E4
:1054C000AF4281464FF000034FF00A02394658467A
:1054D00007D100F0CBF907460546079B0133079338
:1054E00074E700F0C3F92946074600230A2258460C
:1054F00000F0BCF90546F0E7009B002BCCBF1E4630
:1055000001265644002749460122584600F05AFB1E
:105510002146814600F0C2FB0028B0DC02D118F021
:10552000010FACD133461E4613F8012D302AFAD0B4
:10553000C2E59A45A4D1049B0133049331238AF830
:105540000030B9E5239BDFF85CA01BB10AF108032A
:10555000239A1360504619B0BDE8F08F099B012BC8
:105560007FF737AE0F9B0A93012055E6009B002B77
:105570007FF7D6AE564621464846FFF7C8F900F1F8
:10558000300806F8018B009BA6EB0A029342B3DDBC
:10559000494600230A22584600F068F98146EAE7A6
:1055A00058670008DC66000838B50546002941D078
:1055B00051F8043C0C1F002BB8BFE41800F0E8F8C9
:1055C0001D4A136833B9636014602846BDE838404B
:1055D00000F0E4B8A34208D9206821188B4201BF2B
:1055E00019685B6809182160EDE71A465B680BB122
:1055F000A342FAD911685018A0420BD12068014487
:10560000501883421160E0D118685B685360084409
:105610001060DAE702D90C232B60D6E72068211846
:105620008B4204BF19685B68636004BF091821607E
:105630005460CAE738BD00BF94030020024B014606
:10564000186800F025B800BF1C00002070B50F4E90
:105650000C463168054611B900F0D4FC3060214693
:10566000284600F0CFFC431C03D14FF0FF34204606
:1056700070BDC41C24F00304A042F8D0211A2846AF
:1056800000F0C0FC0130F2D1EFE700BF9003002032
:105690002DE9F843CD1C25F0030508350C2D38BF46
:1056A0000C25002D064601DBA94204D90C233360EA
:1056B0000020BDE8F883DFF8D48000F069F8D8F85E
:1056C00000301C4644BB29463046FFF7BFFF431C51
:1056D000044658D1D8F800402746002F43D1002C6B
:1056E0004BD023683946304604EB030900F08AFCAE
:1056F000814542D121686D1A29463046FFF7A6FF41
:1057000001303AD023682B442360D8F800305A681F
:1057100062BBC8F800700FE02268521B20D40B2A2D
:1057200017D96119A342256018BF5960636808BF83
:10573000C8F8001062514B60304600F02FF804F1B9
:105740000B00231D20F00700C21A1CBF1B1AA35018
:10575000AFE76268A3420CBFC8F800205A60EBE7CD
:1057600023466468AEE73C467F68B6E71A465B6846
:10577000A342FBD100235360DEE70C2333603046A5
:1057800000F00CF894E70560D6E700BF9403002012
:105790000148FFF7BAB800BF8C0300200148FFF7AB
:1057A000B5B800BF8C03002070B5C66904460D462D
:1057B00076B91020FFF742FF0246E06120B9184B8E
:1057C00018486B2100F03CFCC0E901660660C66029
:1057D000E669F36883B1E369DB6853F82500B8B97B
:1057E000012101FA05F6721D9200204600F046FCE8
:1057F00060B1C0E901560EE021220421204600F0EC
:105800003DFCE369F060DB68002BE4D1002070BD53
:10581000026843F825200023C0E90333F7E700BFFF
:10582000E96600086967000870B5C66905460C4658
:1058300076B91020FFF702FF0246E86120B9094B54
:1058400009488F2100F0FCFBC0E901660660C660D4
:105850003CB1EB696268DB6853F82210216043F8C1
:10586000224070BDE9660008696700082DE9F04133
:105870000D6907460C461E4601F1140C0020DCF8A9
:10588000003099B202FB01611E0C0B0C02FB0633C7
:1058900089B2013001EB034185424CF8041B4FEA09
:1058A0001346ECDC0EB3A368AB4219DC61683846E2
:1058B0000131FFF779FF804628B902460C4B0D48AD
:1058C000BA2100F0BDFB2269023204F10C01920002
:1058D0000C3000F0A7FB21463846FFF7A5FF4446F1
:1058E00004EB850301355E6125612046BDE8F0814A
:1058F0005867000869670008B0F5803F034636BF67
:10590000030400201020B3F1807F3CBF1B0208304D
:10591000B3F1805F3CBF1B010430B3F1804F3CBF4B
:105920009B000230002B05DB13F0804F00F10100DB
:1059300008BF202070470368024613F007000BD011
:10594000D90721D4980749BF5B089B080120136041
:105950005CBF13600220704799B209B91B0C10207C
:10596000D9B209B908301B0A190704BF1B09043052
:10597000990704BF9B080230D90703D45B0800F1E4
:10598000010003D01360704700207047202070474B
:1059900010B50C460121FFF707FF024628B9054B59
:1059A000054840F2451100F04BFB012344610361BF
:1059B00010BD00BF58670008696700082DE9F04F67
:1059C00014460A6923699A42A8BF23460F46A4BF1A
:1059D0000C461F46D4F810A0D7F81090A368616851
:1059E0000AEB0906B34285B0B8BF0131FFF7DCFE10
:1059F00030B90246444B45484FF4B17100F020FBEA
:105A000000F1140505EB86082B460022434521D3FF
:105A100007F1140104F1140202EB8A0201EB89037D
:105A20000293131B153B23F00303043304F1150702
:105A3000BA4238BF04230193029B03918B420CD8D6
:105A4000002E03DD58F8043D002B5BD0066105B045
:105A5000BDE8F08F43F8042BD8E7B1F800A0BAF105
:105A6000000F24D004F1140EA9464FF0000C5EF88C
:105A7000047BD9F800301FFA87FB9BB20AFB0B337B
:105A80004FEA174BD9F8007063444FEA174C0AFBF2
:105A90000BC707EB13479BB243EA0743724549F82C
:105AA000043B4FEA174CE2D8019B45F803C0039B27
:105AB000B3F802900431B9F1000F21D02B6804F142
:105AC000140CAE464FF0000ABCF800B0BEF80270ED
:105AD00009FB0B7757449BB243EA07434EF8043B5C
